{
  "abi": [
    {
      "inputs": [
        {
          "internalType": "address",
          "name": "_owner",
          "type": "address"
        },
        {
          "internalType": "string",
          "name": "_name",
          "type": "string"
        },
        {
          "internalType": "string",
          "name": "_symbol",
          "type": "string"
        },
        {
          "internalType": "address",
          "name": "_aaveLendingPool",
          "type": "address"
        },
        {
          "internalType": "address",
          "name": "_aaveDataProvider",
          "type": "address"
        },
        {
          "internalType": "address",
          "name": "_aaveOracle",
          "type": "address"
        },
        {
          "internalType": "uint64",
          "name": "_targetLtv",
          "type": "uint64"
        },
        {
          "internalType": "uint64",
          "name": "_lowerBoundLtv",
          "type": "uint64"
        },
        {
          "internalType": "uint64",
          "name": "_upperBoundLtv",
          "type": "uint64"
        },
        {
          "internalType": "uint64",
          "name": "_rebalanceInterval",
          "type": "uint64"
        }
      ],
      "stateMutability": "nonpayable",
      "type": "constructor"
    },
    {
      "anonymous": false,
      "inputs": [
        {
          "indexed": true,
          "internalType": "address",
          "name": "owner",
          "type": "address"
        },
        {
          "indexed": true,
          "internalType": "address",
          "name": "spender",
          "type": "address"
        },
        {
          "indexed": false,
          "internalType": "uint256",
          "name": "amount",
          "type": "uint256"
        }
      ],
      "name": "Approval",
      "type": "event"
    },
    {
      "anonymous": false,
      "inputs": [
        {
          "indexed": true,
          "internalType": "address",
          "name": "caller",
          "type": "address"
        },
        {
          "indexed": true,
          "internalType": "address",
          "name": "owner",
          "type": "address"
        },
        {
          "indexed": false,
          "internalType": "uint256",
          "name": "assets",
          "type": "uint256"
        },
        {
          "indexed": false,
          "internalType": "uint256",
          "name": "shares",
          "type": "uint256"
        }
      ],
      "name": "Deposit",
      "type": "event"
    },
    {
      "anonymous": false,
      "inputs": [
        {
          "indexed": false,
          "internalType": "uint8",
          "name": "version",
          "type": "uint8"
        }
      ],
      "name": "Initialized",
      "type": "event"
    },
    {
      "anonymous": false,
      "inputs": [
        {
          "indexed": true,
          "internalType": "address",
          "name": "caller",
          "type": "address"
        },
        {
          "indexed": false,
          "internalType": "uint256",
          "name": "reward",
          "type": "uint256"
        },
        {
          "indexed": false,
          "internalType": "uint128",
          "name": "timestamp",
          "type": "uint128"
        }
      ],
      "name": "Rebalance",
      "type": "event"
    },
    {
      "anonymous": false,
      "inputs": [
        {
          "indexed": true,
          "internalType": "address",
          "name": "from",
          "type": "address"
        },
        {
          "indexed": true,
          "internalType": "address",
          "name": "to",
          "type": "address"
        },
        {
          "indexed": false,
          "internalType": "uint256",
          "name": "amount",
          "type": "uint256"
        }
      ],
      "name": "Transfer",
      "type": "event"
    },
    {
      "anonymous": false,
      "inputs": [
        {
          "indexed": true,
          "internalType": "address",
          "name": "caller",
          "type": "address"
        },
        {
          "indexed": true,
          "internalType": "address",
          "name": "receiver",
          "type": "address"
        },
        {
          "indexed": true,
          "internalType": "address",
          "name": "owner",
          "type": "address"
        },
        {
          "indexed": false,
          "internalType": "uint256",
          "name": "assets",
          "type": "uint256"
        },
        {
          "indexed": false,
          "internalType": "uint256",
          "name": "shares",
          "type": "uint256"
        }
      ],
      "name": "Withdraw",
      "type": "event"
    },
    {
      "inputs": [],
      "name": "DOMAIN_SEPARATOR",
      "outputs": [
        {
          "internalType": "bytes32",
          "name": "",
          "type": "bytes32"
        }
      ],
      "stateMutability": "view",
      "type": "function"
    },
    {
      "inputs": [],
      "name": "aToken",
      "outputs": [
        {
          "internalType": "address",
          "name": "",
          "type": "address"
        }
      ],
      "stateMutability": "view",
      "type": "function"
    },
    {
      "inputs": [],
      "name": "acceptOwner",
      "outputs": [],
      "stateMutability": "nonpayable",
      "type": "function"
    },
    {
      "inputs": [
        {
          "internalType": "address",
          "name": "",
          "type": "address"
        },
        {
          "internalType": "address",
          "name": "",
          "type": "address"
        }
      ],
      "name": "allowance",
      "outputs": [
        {
          "internalType": "uint256",
          "name": "",
          "type": "uint256"
        }
      ],
      "stateMutability": "view",
      "type": "function"
    },
    {
      "inputs": [
        {
          "internalType": "address",
          "name": "spender",
          "type": "address"
        },
        {
          "internalType": "uint256",
          "name": "amount",
          "type": "uint256"
        }
      ],
      "name": "approve",
      "outputs": [
        {
          "internalType": "bool",
          "name": "",
          "type": "bool"
        }
      ],
      "stateMutability": "nonpayable",
      "type": "function"
    },
    {
      "inputs": [],
      "name": "asset",
      "outputs": [
        {
          "internalType": "contract ERC20",
          "name": "",
          "type": "address"
        }
      ],
      "stateMutability": "view",
      "type": "function"
    },
    {
      "inputs": [
        {
          "internalType": "address",
          "name": "",
          "type": "address"
        }
      ],
      "name": "balanceOf",
      "outputs": [
        {
          "internalType": "uint256",
          "name": "",
          "type": "uint256"
        }
      ],
      "stateMutability": "view",
      "type": "function"
    },
    {
      "inputs": [
        {
          "internalType": "uint256",
          "name": "shares",
          "type": "uint256"
        }
      ],
      "name": "convertToAssets",
      "outputs": [
        {
          "internalType": "uint256",
          "name": "",
          "type": "uint256"
        }
      ],
      "stateMutability": "view",
      "type": "function"
    },
    {
      "inputs": [
        {
          "internalType": "uint256",
          "name": "assets",
          "type": "uint256"
        }
      ],
      "name": "convertToShares",
      "outputs": [
        {
          "internalType": "uint256",
          "name": "",
          "type": "uint256"
        }
      ],
      "stateMutability": "view",
      "type": "function"
    },
    {
      "inputs": [],
      "name": "dataProvider",
      "outputs": [
        {
          "internalType": "contract IAaveProtocolDataProvider",
          "name": "",
          "type": "address"
        }
      ],
      "stateMutability": "view",
      "type": "function"
    },
    {
      "inputs": [],
      "name": "debtToken",
      "outputs": [
        {
          "internalType": "address",
          "name": "",
          "type": "address"
        }
      ],
      "stateMutability": "view",
      "type": "function"
    },
    {
      "inputs": [],
      "name": "decimals",
      "outputs": [
        {
          "internalType": "uint8",
          "name": "",
          "type": "uint8"
        }
      ],
      "stateMutability": "view",
      "type": "function"
    },
    {
      "inputs": [
        {
          "internalType": "uint256",
          "name": "assets",
          "type": "uint256"
        },
        {
          "internalType": "address",
          "name": "receiver",
          "type": "address"
        }
      ],
      "name": "deposit",
      "outputs": [
        {
          "internalType": "uint256",
          "name": "shares",
          "type": "uint256"
        }
      ],
      "stateMutability": "nonpayable",
      "type": "function"
    },
    {
      "inputs": [],
      "name": "factory",
      "outputs": [
        {
          "internalType": "address",
          "name": "",
          "type": "address"
        }
      ],
      "stateMutability": "view",
      "type": "function"
    },
    {
      "inputs": [],
      "name": "getAsset",
      "outputs": [
        {
          "internalType": "address",
          "name": "",
          "type": "address"
        }
      ],
      "stateMutability": "view",
      "type": "function"
    },
    {
      "inputs": [],
      "name": "getCapitalUtilization",
      "outputs": [
        {
          "internalType": "uint256",
          "name": "",
          "type": "uint256"
        }
      ],
      "stateMutability": "view",
      "type": "function"
    },
    {
      "inputs": [],
      "name": "getCollateralETH",
      "outputs": [
        {
          "internalType": "uint256",
          "name": "",
          "type": "uint256"
        }
      ],
      "stateMutability": "view",
      "type": "function"
    },
    {
      "inputs": [],
      "name": "getCurrentLtv",
      "outputs": [
        {
          "internalType": "uint256",
          "name": "",
          "type": "uint256"
        }
      ],
      "stateMutability": "view",
      "type": "function"
    },
    {
      "inputs": [],
      "name": "getDebtETH",
      "outputs": [
        {
          "internalType": "uint256",
          "name": "",
          "type": "uint256"
        }
      ],
      "stateMutability": "view",
      "type": "function"
    },
    {
      "inputs": [],
      "name": "getModuleApr",
      "outputs": [
        {
          "internalType": "int256",
          "name": "",
          "type": "int256"
        }
      ],
      "stateMutability": "view",
      "type": "function"
    },
    {
      "inputs": [],
      "name": "getProduct",
      "outputs": [
        {
          "internalType": "address",
          "name": "",
          "type": "address"
        }
      ],
      "stateMutability": "view",
      "type": "function"
    },
    {
      "inputs": [],
      "name": "getReward",
      "outputs": [
        {
          "internalType": "uint256",
          "name": "",
          "type": "uint256"
        }
      ],
      "stateMutability": "view",
      "type": "function"
    },
    {
      "inputs": [],
      "name": "getSource",
      "outputs": [
        {
          "internalType": "address",
          "name": "",
          "type": "address"
        }
      ],
      "stateMutability": "view",
      "type": "function"
    },
    {
      "inputs": [],
      "name": "getTarget",
      "outputs": [
        {
          "internalType": "address",
          "name": "",
          "type": "address"
        }
      ],
      "stateMutability": "view",
      "type": "function"
    },
    {
      "inputs": [],
      "name": "implementation",
      "outputs": [
        {
          "internalType": "address",
          "name": "",
          "type": "address"
        }
      ],
      "stateMutability": "view",
      "type": "function"
    },
    {
      "inputs": [
        {
          "internalType": "address",
          "name": "_asset",
          "type": "address"
        },
        {
          "internalType": "address",
          "name": "_product",
          "type": "address"
        },
        {
          "internalType": "address",
          "name": "_source",
          "type": "address"
        },
        {
          "internalType": "address",
          "name": "_implementation",
          "type": "address"
        }
      ],
      "name": "initialize",
      "outputs": [],
      "stateMutability": "nonpayable",
      "type": "function"
    },
    {
      "inputs": [],
      "name": "lendingPool",
      "outputs": [
        {
          "internalType": "contract IAaveLendingPool",
          "name": "",
          "type": "address"
        }
      ],
      "stateMutability": "view",
      "type": "function"
    },
    {
      "inputs": [],
      "name": "lowerBoundLtv",
      "outputs": [
        {
          "internalType": "uint64",
          "name": "",
          "type": "uint64"
        }
      ],
      "stateMutability": "view",
      "type": "function"
    },
    {
      "inputs": [
        {
          "internalType": "address",
          "name": "",
          "type": "address"
        }
      ],
      "name": "maxDeposit",
      "outputs": [
        {
          "internalType": "uint256",
          "name": "",
          "type": "uint256"
        }
      ],
      "stateMutability": "view",
      "type": "function"
    },
    {
      "inputs": [
        {
          "internalType": "address",
          "name": "",
          "type": "address"
        }
      ],
      "name": "maxMint",
      "outputs": [
        {
          "internalType": "uint256",
          "name": "",
          "type": "uint256"
        }
      ],
      "stateMutability": "view",
      "type": "function"
    },
    {
      "inputs": [
        {
          "internalType": "address",
          "name": "owner",
          "type": "address"
        }
      ],
      "name": "maxRedeem",
      "outputs": [
        {
          "internalType": "uint256",
          "name": "",
          "type": "uint256"
        }
      ],
      "stateMutability": "view",
      "type": "function"
    },
    {
      "inputs": [
        {
          "internalType": "address",
          "name": "owner",
          "type": "address"
        }
      ],
      "name": "maxWithdraw",
      "outputs": [
        {
          "internalType": "uint256",
          "name": "",
          "type": "uint256"
        }
      ],
      "stateMutability": "view",
      "type": "function"
    },
    {
      "inputs": [
        {
          "internalType": "uint256",
          "name": "shares",
          "type": "uint256"
        },
        {
          "internalType": "address",
          "name": "receiver",
          "type": "address"
        }
      ],
      "name": "mint",
      "outputs": [
        {
          "internalType": "uint256",
          "name": "assets",
          "type": "uint256"
        }
      ],
      "stateMutability": "nonpayable",
      "type": "function"
    },
    {
      "inputs": [],
      "name": "name",
      "outputs": [
        {
          "internalType": "string",
          "name": "",
          "type": "string"
        }
      ],
      "stateMutability": "view",
      "type": "function"
    },
    {
      "inputs": [
        {
          "internalType": "address",
          "name": "",
          "type": "address"
        }
      ],
      "name": "nonces",
      "outputs": [
        {
          "internalType": "uint256",
          "name": "",
          "type": "uint256"
        }
      ],
      "stateMutability": "view",
      "type": "function"
    },
    {
      "inputs": [],
      "name": "oracle",
      "outputs": [
        {
          "internalType": "contract IPriceOracleGetter",
          "name": "",
          "type": "address"
        }
      ],
      "stateMutability": "view",
      "type": "function"
    },
    {
      "inputs": [],
      "name": "owner",
      "outputs": [
        {
          "internalType": "address",
          "name": "",
          "type": "address"
        }
      ],
      "stateMutability": "view",
      "type": "function"
    },
    {
      "inputs": [],
      "name": "pendingOwner",
      "outputs": [
        {
          "internalType": "address",
          "name": "",
          "type": "address"
        }
      ],
      "stateMutability": "view",
      "type": "function"
    },
    {
      "inputs": [
        {
          "internalType": "address",
          "name": "owner",
          "type": "address"
        },
        {
          "internalType": "address",
          "name": "spender",
          "type": "address"
        },
        {
          "internalType": "uint256",
          "name": "value",
          "type": "uint256"
        },
        {
          "internalType": "uint256",
          "name": "deadline",
          "type": "uint256"
        },
        {
          "internalType": "uint8",
          "name": "v",
          "type": "uint8"
        },
        {
          "internalType": "bytes32",
          "name": "r",
          "type": "bytes32"
        },
        {
          "internalType": "bytes32",
          "name": "s",
          "type": "bytes32"
        }
      ],
      "name": "permit",
      "outputs": [],
      "stateMutability": "nonpayable",
      "type": "function"
    },
    {
      "inputs": [
        {
          "internalType": "uint256",
          "name": "assets",
          "type": "uint256"
        }
      ],
      "name": "previewDeposit",
      "outputs": [
        {
          "internalType": "uint256",
          "name": "",
          "type": "uint256"
        }
      ],
      "stateMutability": "view",
      "type": "function"
    },
    {
      "inputs": [
        {
          "internalType": "uint256",
          "name": "shares",
          "type": "uint256"
        }
      ],
      "name": "previewMint",
      "outputs": [
        {
          "internalType": "uint256",
          "name": "",
          "type": "uint256"
        }
      ],
      "stateMutability": "view",
      "type": "function"
    },
    {
      "inputs": [
        {
          "internalType": "uint256",
          "name": "shares",
          "type": "uint256"
        }
      ],
      "name": "previewRedeem",
      "outputs": [
        {
          "internalType": "uint256",
          "name": "",
          "type": "uint256"
        }
      ],
      "stateMutability": "view",
      "type": "function"
    },
    {
      "inputs": [
        {
          "internalType": "uint256",
          "name": "assets",
          "type": "uint256"
        }
      ],
      "name": "previewWithdraw",
      "outputs": [
        {
          "internalType": "uint256",
          "name": "",
          "type": "uint256"
        }
      ],
      "stateMutability": "view",
      "type": "function"
    },
    {
      "inputs": [],
      "name": "product",
      "outputs": [
        {
          "internalType": "contract ERC20",
          "name": "",
          "type": "address"
        }
      ],
      "stateMutability": "view",
      "type": "function"
    },
    {
      "inputs": [],
      "name": "rebalance",
      "outputs": [],
      "stateMutability": "nonpayable",
      "type": "function"
    },
    {
      "inputs": [],
      "name": "rebalanceInterval",
      "outputs": [
        {
          "internalType": "uint128",
          "name": "",
          "type": "uint128"
        }
      ],
      "stateMutability": "view",
      "type": "function"
    },
    {
      "inputs": [],
      "name": "rebalanceRequired",
      "outputs": [
        {
          "internalType": "bool",
          "name": "",
          "type": "bool"
        }
      ],
      "stateMutability": "view",
      "type": "function"
    },
    {
      "inputs": [],
      "name": "rebalanceTimestamp",
      "outputs": [
        {
          "internalType": "uint128",
          "name": "",
          "type": "uint128"
        }
      ],
      "stateMutability": "view",
      "type": "function"
    },
    {
      "inputs": [
        {
          "internalType": "uint256",
          "name": "shares",
          "type": "uint256"
        },
        {
          "internalType": "address",
          "name": "receiver",
          "type": "address"
        },
        {
          "internalType": "address",
          "name": "owner",
          "type": "address"
        }
      ],
      "name": "redeem",
      "outputs": [
        {
          "internalType": "uint256",
          "name": "assets",
          "type": "uint256"
        }
      ],
      "stateMutability": "nonpayable",
      "type": "function"
    },
    {
      "inputs": [
        {
          "internalType": "address",
          "name": "_owner",
          "type": "address"
        }
      ],
      "name": "setOwner",
      "outputs": [],
      "stateMutability": "nonpayable",
      "type": "function"
    },
    {
      "inputs": [
        {
          "internalType": "address",
          "name": "_target",
          "type": "address"
        }
      ],
      "name": "setTarget",
      "outputs": [],
      "stateMutability": "nonpayable",
      "type": "function"
    },
    {
      "inputs": [],
      "name": "source",
      "outputs": [
        {
          "internalType": "contract ERC4626",
          "name": "",
          "type": "address"
        }
      ],
      "stateMutability": "view",
      "type": "function"
    },
    {
      "inputs": [],
      "name": "strategy",
      "outputs": [
        {
          "internalType": "contract ERC4626",
          "name": "",
          "type": "address"
        }
      ],
      "stateMutability": "view",
      "type": "function"
    },
    {
      "inputs": [],
      "name": "symbol",
      "outputs": [
        {
          "internalType": "string",
          "name": "",
          "type": "string"
        }
      ],
      "stateMutability": "view",
      "type": "function"
    },
    {
      "inputs": [],
      "name": "target",
      "outputs": [
        {
          "internalType": "contract ERC4626",
          "name": "",
          "type": "address"
        }
      ],
      "stateMutability": "view",
      "type": "function"
    },
    {
      "inputs": [],
      "name": "targetLtv",
      "outputs": [
        {
          "internalType": "uint64",
          "name": "",
          "type": "uint64"
        }
      ],
      "stateMutability": "view",
      "type": "function"
    },
    {
      "inputs": [],
      "name": "totalAssets",
      "outputs": [
        {
          "internalType": "uint256",
          "name": "",
          "type": "uint256"
        }
      ],
      "stateMutability": "view",
      "type": "function"
    },
    {
      "inputs": [],
      "name": "totalSupply",
      "outputs": [
        {
          "internalType": "uint256",
          "name": "",
          "type": "uint256"
        }
      ],
      "stateMutability": "view",
      "type": "function"
    },
    {
      "inputs": [],
      "name": "totalTargetBalance",
      "outputs": [
        {
          "internalType": "uint256",
          "name": "",
          "type": "uint256"
        }
      ],
      "stateMutability": "view",
      "type": "function"
    },
    {
      "inputs": [
        {
          "internalType": "address",
          "name": "to",
          "type": "address"
        },
        {
          "internalType": "uint256",
          "name": "amount",
          "type": "uint256"
        }
      ],
      "name": "transfer",
      "outputs": [
        {
          "internalType": "bool",
          "name": "",
          "type": "bool"
        }
      ],
      "stateMutability": "nonpayable",
      "type": "function"
    },
    {
      "inputs": [
        {
          "internalType": "address",
          "name": "from",
          "type": "address"
        },
        {
          "internalType": "address",
          "name": "to",
          "type": "address"
        },
        {
          "internalType": "uint256",
          "name": "amount",
          "type": "uint256"
        }
      ],
      "name": "transferFrom",
      "outputs": [
        {
          "internalType": "bool",
          "name": "",
          "type": "bool"
        }
      ],
      "stateMutability": "nonpayable",
      "type": "function"
    },
    {
      "inputs": [],
      "name": "upperBoundLtv",
      "outputs": [
        {
          "internalType": "uint64",
          "name": "",
          "type": "uint64"
        }
      ],
      "stateMutability": "view",
      "type": "function"
    },
    {
      "inputs": [
        {
          "internalType": "uint256",
          "name": "assets",
          "type": "uint256"
        },
        {
          "internalType": "address",
          "name": "receiver",
          "type": "address"
        },
        {
          "internalType": "address",
          "name": "owner",
          "type": "address"
        }
      ],
      "name": "withdraw",
      "outputs": [
        {
          "internalType": "uint256",
          "name": "shares",
          "type": "uint256"
        }
      ],
      "stateMutability": "nonpayable",
      "type": "function"
    }
  ],
  "bytecode": {
    "object": "0x6101606040523480156200001257600080fd5b5060405162004f8038038062004f808339810160408190526200003591620003f9565b601180546001600160a01b0319166001600160a01b038c1617905588516001600160401b038216908b908b908b906200007690600190602085019062000251565b5080516200008c90600290602084019062000251565b505050506001600160801b03166080526001600160401b0383811690851611620000eb5760405162461bcd60e51b8152600401620000e29060208082526004908201526310a62a2b60e11b604082015260600190565b60405180910390fd5b6000836001600160401b0316116200012f5760405162461bcd60e51b8152600401620000e29060208082526004908201526310a62a2b60e11b604082015260600190565b836001600160401b0316826001600160401b0316116200017b5760405162461bcd60e51b8152600401620000e29060208082526004908201526310a62a2b60e11b604082015260600190565b620f4240826001600160401b031610620001c15760405162461bcd60e51b8152600401620000e29060208082526004908201526310a62a2b60e11b604082015260600190565b6000816001600160401b031611620002115760405162461bcd60e51b8152602060048201526012602482015271085c9958985b185b98d9525b9d195c9d985b60721b6044820152606401620000e2565b506001600160a01b03958616610100529385166101205291909316610140526001600160401b0392831660a052821660c0521660e0525062000537915050565b8280546200025f90620004fb565b90600052602060002090601f016020900481019282620002835760008555620002ce565b82601f106200029e57805160ff1916838001178555620002ce565b82800160010185558215620002ce579182015b82811115620002ce578251825591602001919060010190620002b1565b50620002dc929150620002e0565b5090565b5b80821115620002dc5760008155600101620002e1565b80516001600160a01b03811681146200030f57600080fd5b919050565b634e487b7160e01b600052604160045260246000fd5b600082601f8301126200033c57600080fd5b81516001600160401b038082111562000359576200035962000314565b604051601f8301601f19908116603f0116810190828211818310171562000384576200038462000314565b81604052838152602092508683858801011115620003a157600080fd5b600091505b83821015620003c55785820183015181830184015290820190620003a6565b83821115620003d75760008385830101525b9695505050505050565b80516001600160401b03811681146200030f57600080fd5b6000806000806000806000806000806101408b8d0312156200041a57600080fd5b620004258b620002f7565b60208c0151909a506001600160401b03808211156200044357600080fd5b620004518e838f016200032a565b9a5060408d01519150808211156200046857600080fd5b50620004778d828e016200032a565b9850506200048860608c01620002f7565b96506200049860808c01620002f7565b9550620004a860a08c01620002f7565b9450620004b860c08c01620003e1565b9350620004c860e08c01620003e1565b9250620004d96101008c01620003e1565b9150620004ea6101208c01620003e1565b90509295989b9194979a5092959850565b600181811c908216806200051057607f821691505b6020821081036200053157634e487b7160e01b600052602260045260246000fd5b50919050565b60805160a05160c05160e0516101005161012051610140516148dd620006a36000396000818161062801528181610ab101528181610b4001528181612d6a0152818161321c015261341c0152600081816107580152818161174b015281816117dc0152818161255b015281816127120152818161283b01526128cf0152600081816106df01528181611076015281816114af01528181611a1101528181611b6501528181611da0015281816120490152818161241a01528181612976015281816129ac015281816129e201528181612c9001528181612e44015281816130d5015281816131840152818161336c015281816134f6015281816137de0152613d430152600081816106770152818161132801528181611c6b01528181611f1f015261268e0152600081816104a501526112ee0152600081816108a101528181611cb801528181611f6c0152612d1901526000818161045d015281816112a7015261138501526148dd6000f3fe608060405234801561001057600080fd5b50600436106103c55760003560e01c80638da5cb5b116101ff578063c45a01551161011a578063e30c3978116100ad578063f00e6a2a1161007c578063f00e6a2a146108c3578063f4afdebd146108d4578063f8c8765e146108dc578063f8d89898146108ef57600080fd5b8063e30c397814610881578063ebbc496514610894578063ec921dc11461089c578063ef8b30f7146107e157600080fd5b8063d4b83992116100e9578063d4b8399214610807578063d505accf1461081a578063d905777e1461082d578063dd62ed3e1461085657600080fd5b8063c45a0155146107ce578063c63d75b614610565578063c6e6f592146107e1578063ce96cb77146107f457600080fd5b8063afa293d411610192578063b460af9411610161578063b460af941461078d578063ba087652146107a0578063bdde8a48146107b3578063bf9ce952146107bb57600080fd5b8063afa293d41461073a578063b01db0781461074b578063b334ed8614610753578063b3d7f6b91461077a57600080fd5b8063a59a9973116101ce578063a59a9973146106da578063a8c62e7614610701578063a9059cbb14610714578063adbd0f8f1461072757600080fd5b80638da5cb5b1461069957806394bf804d146106ac57806395d89b41146106bf578063a0c1f15e146106c757600080fd5b80633a794246116102ef5780636e553f65116102825780637dc0d1d0116102515780637dc0d1d0146106235780637ecebe001461064a5780637f240fbf1461066a5780638469415f1461067257600080fd5b80636e553f65146105d557806370a08231146105e8578063776d1a01146106085780637d7c2a1c1461061b57600080fd5b80634cdad506116102be5780634cdad5061461058b5780635c222bad1461059e5780635c60da1b146105af57806367e828bf146105c257600080fd5b80633a794246146105555780633d18b9121461055d578063402d267d146105655780634ba200501461057a57600080fd5b806318160ddd116103675780632bf8eb1d116103365780632bf8eb1d146104fb578063313ce567146105035780633644e5151461052257806338d52e0f1461052a57600080fd5b806318160ddd14610497578063203222aa146104a057806321342b38146104e057806323b872dd146104e857600080fd5b8063095ea7b3116103a3578063095ea7b31461040d5780630a28a4771461043057806313af40351461044357806316d1d9161461045857600080fd5b806301e1d114146103ca57806306fdde03146103e557806307a2d13a146103fa575b600080fd5b6103d2610902565b6040519081526020015b60405180910390f35b6103ed610e9c565b6040516103dc9190613fce565b6103d2610408366004613fe1565b610f2a565b61042061041b366004614012565b610f57565b60405190151581526020016103dc565b6103d261043e366004613fe1565b610fc4565b61045661045136600461403e565b610fe4565b005b61047f7f000000000000000000000000000000000000000000000000000000000000000081565b6040516001600160801b0390911681526020016103dc565b6103d260045481565b6104c77f000000000000000000000000000000000000000000000000000000000000000081565b60405167ffffffffffffffff90911681526020016103dc565b6103d2611052565b6104206104f636600461405b565b611106565b6103d26111e6565b6003546105109060ff1681565b60405160ff90911681526020016103dc565b6103d261127d565b600a5461053d906001600160a01b031681565b6040516001600160a01b0390911681526020016103dc565b610420611297565b6103d2611368565b6103d261057336600461403e565b5060001990565b600b546001600160a01b031661053d565b6103d2610599366004613fe1565b6113cc565b600a546001600160a01b031661053d565b60105461053d906001600160a01b031681565b600c5461053d906001600160a01b031681565b6103d26105e33660046140b0565b6113d7565b6103d26105f636600461403e565b60056020526000908152604090205481565b61045661061636600461403e565b61157a565b610456611655565b61053d7f000000000000000000000000000000000000000000000000000000000000000081565b6103d261065836600461403e565b60096020526000908152604090205481565b6103d2611724565b6104c77f000000000000000000000000000000000000000000000000000000000000000081565b60115461053d906001600160a01b031681565b6103d26106ba3660046140b0565b611972565b6103ed611ad0565b60145461053d906001600160a01b031681565b61053d7f000000000000000000000000000000000000000000000000000000000000000081565b600e5461053d906001600160a01b031681565b610420610722366004614012565b611add565b60135461047f906001600160801b031681565b600c546001600160a01b031661053d565b6103d2611b43565b61053d7f000000000000000000000000000000000000000000000000000000000000000081565b6103d2610788366004613fe1565b611bdc565b6103d261079b3660046140e0565b611bfb565b6103d26107ae3660046140e0565b611e66565b6103d2612101565b600b5461053d906001600160a01b031681565b600f5461053d906001600160a01b031681565b6103d26107ef366004613fe1565b61210b565b6103d261080236600461403e565b61212b565b600d5461053d906001600160a01b031681565b610456610828366004614131565b61214d565b6103d261083b36600461403e565b6001600160a01b031660009081526005602052604090205490565b6103d26108643660046141a2565b600660209081526000928352604080842090915290825290205481565b60125461053d906001600160a01b031681565b610456612391565b6104c77f000000000000000000000000000000000000000000000000000000000000000081565b600d546001600160a01b031661053d565b6103d26123f8565b6104566108ea3660046141d0565b612491565b60155461053d906001600160a01b031681565b6014546040516370a0823160e01b815230600482015260009182916001600160a01b03909116906370a0823190602401602060405180830381865afa15801561094f573d6000803e3d6000fd5b505050506040513d601f19601f82011682018060405250810190610973919061422c565b6015546040516370a0823160e01b81523060048201529192506000916001600160a01b03909116906370a0823190602401602060405180830381865afa1580156109c1573d6000803e3d6000fd5b505050506040513d601f19601f820116820180604052508101906109e5919061422c565b600d546040516370a0823160e01b81523060048201529192506000916001600160a01b03909116906370a0823190602401602060405180830381865afa158015610a33573d6000803e3d6000fd5b505050506040513d601f19601f82011682018060405250810190610a57919061422c565b9050811580610a64575080155b15610a7157509092915050565b6000610a7b6111e6565b600a5460405163b3596f0760e01b81526001600160a01b039182166004820152919250600091610bb491670de0b6b3a7640000917f00000000000000000000000000000000000000000000000000000000000000009091169063b3596f0790602401602060405180830381865afa158015610afa573d6000803e3d6000fd5b505050506040513d601f19601f82011682018060405250810190610b1e919061422c565b600b5460405163b3596f0760e01b81526001600160a01b0391821660048201527f00000000000000000000000000000000000000000000000000000000000000009091169063b3596f0790602401602060405180830381865afa158015610b89573d6000803e3d6000fd5b505050506040513d601f19601f82011682018060405250810190610bad919061422c565b9190612a5d565b905081841115610d66576000610cd8600a60009054906101000a90046001600160a01b03166001600160a01b031663313ce5676040518163ffffffff1660e01b8152600401602060405180830381865afa158015610c16573d6000803e3d6000fd5b505050506040513d601f19601f82011682018060405250810190610c3a9190614245565b610c4590600a61435c565b600b60009054906101000a90046001600160a01b03166001600160a01b031663313ce5676040518163ffffffff1660e01b8152600401602060405180830381865afa158015610c98573d6000803e3d6000fd5b505050506040513d601f19601f82011682018060405250810190610cbc9190614245565b610cc790600a61435c565b610cd1868961436b565b9190612a8b565b90506000610cef82670de0b6b3a764000085612a5d565b9050610d226040518060400160405280600f81526020016e636f6c6c61746572616c56616c756560881b81525088612aaa565b610d506040518060400160405280600c81526020016b6e65744465627456616c756560a01b81525082612aaa565b610d5a818861436b565b97505050505050505090565b6000610e79600a60009054906101000a90046001600160a01b03166001600160a01b031663313ce5676040518163ffffffff1660e01b8152600401602060405180830381865afa158015610dbe573d6000803e3d6000fd5b505050506040513d601f19601f82011682018060405250810190610de29190614245565b610ded90600a61435c565b600b60009054906101000a90046001600160a01b03166001600160a01b031663313ce5676040518163ffffffff1660e01b8152600401602060405180830381865afa158015610e40573d6000803e3d6000fd5b505050506040513d601f19601f82011682018060405250810190610e649190614245565b610e6f90600a61435c565b610bad888761436b565b90506000610e9082670de0b6b3a764000085612a8b565b9050610d5a8188614382565b60018054610ea99061439a565b80601f0160208091040260200160405190810160405280929190818152602001828054610ed59061439a565b8015610f225780601f10610ef757610100808354040283529160200191610f22565b820191906000526020600020905b815481529060010190602001808311610f0557829003601f168201915b505050505081565b6004546000908015610f4e57610f49610f41610902565b849083612a8b565b610f50565b825b9392505050565b3360008181526006602090815260408083206001600160a01b038716808552925280832085905551919290917f8c5be1e5ebec7d5bd14f71427d1e84f3dd0314c0f7b2291e5b200ac8c7c3b92590610fb29086815260200190565b60405180910390a35060015b92915050565b6004546000908015610f4e57610f4981610fdc610902565b859190612a5d565b6011546001600160a01b031633146110305760405162461bcd60e51b815260206004820152600a60248201526908585d5d1bdc9a5e995960b21b60448201526064015b60405180910390fd5b601280546001600160a01b0319166001600160a01b0392909216919091179055565b604051632fe4a15f60e21b8152306004820152600090819081906001600160a01b037f0000000000000000000000000000000000000000000000000000000000000000169063bf92857c9060240160c060405180830381865afa1580156110bd573d6000803e3d6000fd5b505050506040513d601f19601f820116820180604052508101906110e191906143d4565b50939550919350600092506110fe9150839050620f424085612a5d565b949350505050565b6001600160a01b038316600090815260066020908152604080832033845290915281205460001981146111625761113d838261436b565b6001600160a01b03861660009081526006602090815260408083203384529091529020555b6001600160a01b0385166000908152600560205260408120805485929061118a90849061436b565b90915550506001600160a01b0380851660008181526005602052604090819020805487019055519091871690600080516020614888833981519152906111d39087815260200190565b60405180910390a3506001949350505050565b600d546000906001600160a01b031661120657611201610902565b905090565b600d60009054906101000a90046001600160a01b03166001600160a01b03166301e1d1146040518163ffffffff1660e01b8152600401602060405180830381865afa158015611259573d6000803e3d6000fd5b505050506040513d601f19601f82011682018060405250810190611201919061422c565b6000600754461461129057611201612aef565b5060085490565b6013546000906001600160801b037f00000000000000000000000000000000000000000000000000000000000000008116916112d491164261436b565b11156112e05750600190565b60006112ea611052565b90507f000000000000000000000000000000000000000000000000000000000000000067ffffffffffffffff1681101561132657600191505090565b7f000000000000000000000000000000000000000000000000000000000000000067ffffffffffffffff1681111561136057600191505090565b600091505090565b60045460009066470de4df820000826113af826001600160801b037f0000000000000000000000000000000000000000000000000000000000000000166301e13380612a8b565b90506113c48382670de0b6b3a7640000612a8b565b935050505090565b6000610fbe82610f2a565b600c5460009082906001600160a01b03163381146114075760405162461bcd60e51b81526004016110279061441e565b806001600160a01b0316826001600160a01b0316146114385760405162461bcd60e51b81526004016110279061441e565b6114418561210b565b92508260000361147d5760405162461bcd60e51b81526020600482015260076024820152662173686172657360c81b6044820152606401611027565b600a54611495906001600160a01b0316333088612b89565b600a5460405163e8eda9df60e01b81526001600160a01b037f000000000000000000000000000000000000000000000000000000000000000081169263e8eda9df926114ef9291909116908990309060009060040161443f565b600060405180830381600087803b15801561150957600080fd5b505af115801561151d573d6000803e3d6000fd5b5050505061152b8484612c0c565b60408051868152602081018590526001600160a01b0386169133917fdcbc1c05240f31ff3ad067ef1ee35ce4997762752e3a095284754544f4c709d791015b60405180910390a3505092915050565b600d546001600160a01b0316156115c25760405162461bcd60e51b815260206004820152600c60248201526b085a5b9a5d1a585b1a5e995960a21b6044820152606401611027565b600d80546001600160a01b0319166001600160a01b03838116918217909255600b5460405163095ea7b360e01b8152600481019290925260001960248301529091169063095ea7b3906044016020604051808303816000875af115801561162d573d6000803e3d6000fd5b505050506040513d601f19601f820116820180604052508101906116519190614481565b5050565b61165d611297565b6116a15760405162461bcd60e51b8152602060048201526015602482015274085c9958985b185b98d9539bdd14995c5d5a5c9959605a1b6044820152606401611027565b6116a9612c66565b601380546fffffffffffffffffffffffffffffffff1916426001600160801b03161790556116d561314d565b337f9d87982806b4b9230ca8e2416e1584fbff27a9eebcfadf57dbb57ea87ec8ef236116ff611368565b601354604080519283526001600160801b0390911660208301520160405180910390a2565b600a546040516335ea6a7560e01b81526001600160a01b03918216600482015260009182917f0000000000000000000000000000000000000000000000000000000000000000909116906335ea6a759060240161014060405180830381865afa158015611795573d6000803e3d6000fd5b505050506040513d601f19601f820116820180604052508101906117b9919061449c565b5050600b546040516335ea6a7560e01b8152959950600098506001600160a01b037f0000000000000000000000000000000000000000000000000000000000000000811698506335ea6a75975061181b9691169450600401925061409c915050565b61014060405180830381865afa158015611839573d6000803e3d6000fd5b505050506040513d601f19601f8201168201806040525081019061185d919061449c565b5093985060009750611876965061105295505050505050565b60408051808201909152601181527061617665206465706f736974207261746560781b60208201529091506118c9906118c485670de0b6b3a76400006b033b2e3c9fd0803ce8000000612a8b565b612aaa565b60408051808201909152601081526f6161766520626f72726f77207261746560801b6020820152611913906118c484670de0b6b3a76400006b033b2e3c9fd0803ce8000000612a5d565b600061194061192a83670de0b6b3a7640000614525565b84906d314dc6448d9338c15b0a00000000612a5d565b61195f85670de0b6b3a76400006b033b2e3c9fd0803ce8000000612a8b565b6119699190614544565b95945050505050565b600c5460009082906001600160a01b03163381146119a25760405162461bcd60e51b81526004016110279061441e565b806001600160a01b0316826001600160a01b0316146119d35760405162461bcd60e51b81526004016110279061441e565b6119dc85611bdc565b600a549093506119f7906001600160a01b0316333086612b89565b600a5460405163e8eda9df60e01b81526001600160a01b037f000000000000000000000000000000000000000000000000000000000000000081169263e8eda9df92611a519291909116908790309060009060040161443f565b600060405180830381600087803b158015611a6b57600080fd5b505af1158015611a7f573d6000803e3d6000fd5b50505050611a8d8486612c0c565b60408051848152602081018790526001600160a01b0386169133917fdcbc1c05240f31ff3ad067ef1ee35ce4997762752e3a095284754544f4c709d7910161156a565b60028054610ea99061439a565b33600090815260056020526040812080548391908390611afe90849061436b565b90915550506001600160a01b0383166000818152600560205260409081902080548501905551339060008051602061488883398151915290610fb29086815260200190565b604051632fe4a15f60e21b815230600482015260009081906001600160a01b037f0000000000000000000000000000000000000000000000000000000000000000169063bf92857c9060240160c060405180830381865afa158015611bac573d6000803e3d6000fd5b505050506040513d601f19601f82011682018060405250810190611bd091906143d4565b50939695505050505050565b6004546000908015610f4e57610f49611bf3610902565b849083612a5d565b600c5460009082906001600160a01b0316338114611c2b5760405162461bcd60e51b81526004016110279061441e565b806001600160a01b0316826001600160a01b031614611c5c5760405162461bcd60e51b81526004016110279061441e565b6000611c6787613160565b90507f000000000000000000000000000000000000000000000000000000000000000067ffffffffffffffff16811115611cec576000611ca5611052565b90506000611cde8267ffffffffffffffff7f00000000000000000000000000000000000000000000000000000000000000001685612a8b565b9050611ce98161334a565b50505b611cf587610fc4565b9350336001600160a01b03861614611d65576001600160a01b03851660009081526006602090815260408083203384529091529020546000198114611d6357611d3e858261436b565b6001600160a01b03871660009081526006602090815260408083203384529091529020555b505b611d6f8585613858565b600a54604051631a4ca37b60e21b81526001600160a01b0391821660048201526024810189905287821660448201527f0000000000000000000000000000000000000000000000000000000000000000909116906369328dec906064016020604051808303816000875af1158015611deb573d6000803e3d6000fd5b505050506040513d601f19601f82011682018060405250810190611e0f919061422c565b5060408051888152602081018690526001600160a01b03808816929089169133917ffbde797d201c681b91056529119e0b02407c7bb96a4a2c75c01fc9667232c8db91015b60405180910390a45050509392505050565b600c5460009082906001600160a01b0316338114611e965760405162461bcd60e51b81526004016110279061441e565b806001600160a01b0316826001600160a01b031614611ec75760405162461bcd60e51b81526004016110279061441e565b611ed0866113cc565b925082600003611f105760405162461bcd60e51b815260206004820152600b60248201526a5a45524f5f41535345545360a81b6044820152606401611027565b6000611f1b84613160565b90507f000000000000000000000000000000000000000000000000000000000000000067ffffffffffffffff16811115611fa0576000611f59611052565b90506000611f928267ffffffffffffffff7f00000000000000000000000000000000000000000000000000000000000000001685612a8b565b9050611f9d8161334a565b50505b336001600160a01b0386161461200e576001600160a01b0385166000908152600660209081526040808320338452909152902054600019811461200c57611fe7888261436b565b6001600160a01b03871660009081526006602090815260408083203384529091529020555b505b6120188588613858565b600a54604051631a4ca37b60e21b81526001600160a01b0391821660048201526024810186905287821660448201527f0000000000000000000000000000000000000000000000000000000000000000909116906369328dec906064016020604051808303816000875af1158015612094573d6000803e3d6000fd5b505050506040513d601f19601f820116820180604052508101906120b8919061422c565b5060408051858152602081018990526001600160a01b03808816929089169133917ffbde797d201c681b91056529119e0b02407c7bb96a4a2c75c01fc9667232c8db9101611e54565b6000611201611052565b6004546000908015610f4e57610f4981612123610902565b859190612a8b565b6001600160a01b038116600090815260056020526040812054610fbe90610f2a565b4284101561219d5760405162461bcd60e51b815260206004820152601760248201527f5045524d49545f444541444c494e455f455850495245440000000000000000006044820152606401611027565b600060016121a961127d565b6001600160a01b038a811660008181526009602090815260409182902080546001810190915582517f6e71edae12b1b97f4d1f60370fef10105fa2faae0126114a169c64845d6126c98184015280840194909452938d166060840152608083018c905260a083019390935260c08083018b90528151808403909101815260e08301909152805192019190912061190160f01b6101008301526101028201929092526101228101919091526101420160408051601f198184030181528282528051602091820120600084529083018083525260ff871690820152606081018590526080810184905260a0016020604051602081039080840390855afa1580156122b5573d6000803e3d6000fd5b5050604051601f1901519150506001600160a01b038116158015906122eb5750876001600160a01b0316816001600160a01b0316145b6123285760405162461bcd60e51b815260206004820152600e60248201526d24a72b20a624a22fa9a4a3a722a960911b6044820152606401611027565b6001600160a01b0390811660009081526006602090815260408083208a8516808552908352928190208990555188815291928a16917f8c5be1e5ebec7d5bd14f71427d1e84f3dd0314c0f7b2291e5b200ac8c7c3b925910160405180910390a350505050505050565b6012546001600160a01b031633146123d85760405162461bcd60e51b815260206004820152600a60248201526908585d5d1bdc9a5e995960b21b6044820152606401611027565b601180546001600160a01b03199081163317909155601280549091169055565b604051632fe4a15f60e21b815230600482015260009081906001600160a01b037f0000000000000000000000000000000000000000000000000000000000000000169063bf92857c9060240160c060405180830381865afa158015612461573d6000803e3d6000fd5b505050506040513d601f19601f8201168201806040525081019061248591906143d4565b50929695505050505050565b600054610100900460ff16158080156124b15750600054600160ff909116105b806124cb5750303b1580156124cb575060005460ff166001145b61252e5760405162461bcd60e51b815260206004820152602e60248201527f496e697469616c697a61626c653a20636f6e747261637420697320616c72656160448201526d191e481a5b9a5d1a585b1a5e995960921b6064820152608401611027565b6000805460ff191660011790558015612551576000805461ff0019166101001790555b60008060008060007f00000000000000000000000000000000000000000000000000000000000000006001600160a01b0316633e1501418b6040518263ffffffff1660e01b81526004016125b491906001600160a01b0391909116815260200190565b61014060405180830381865afa1580156125d2573d6000803e3d6000fd5b505050506040513d601f19601f820116820180604052508101906125f69190614583565b509c50919a509496508a95506126439450505050505760405162461bcd60e51b815260206004820152600c60248201526b21617373657441637469766560a01b6044820152606401611027565b836126835760405162461bcd60e51b815260206004820152601060248201526f08585cdcd95d10dbdb1b185d195c985b60821b6044820152606401611027565b67ffffffffffffffff7f0000000000000000000000000000000000000000000000000000000000000000166126b9826064614525565b10156126f35760405162461bcd60e51b815260206004820152600960248201526810b0b9b9b2ba262a2b60b91b6044820152606401611027565b604051633e15014160e01b81526001600160a01b038a811660048301527f00000000000000000000000000000000000000000000000000000000000000001690633e1501419060240161014060405180830381865afa15801561275a573d6000803e3d6000fd5b505050506040513d601f19601f8201168201806040525081019061277e9190614583565b509a509098508996506127cb955050505050505760405162461bcd60e51b815260206004820152600e60248201526d2170726f6475637441637469766560901b6044820152606401611027565b8161280d5760405162461bcd60e51b81526020600482015260126024820152712170726f64756374426f72726f7761626c6560701b6044820152606401611027565b6128198a8a8a8a6138ba565b6040516334924edb60e21b81526001600160a01b038b811660048301526000917f00000000000000000000000000000000000000000000000000000000000000009091169063d2493b6c90602401606060405180830381865afa158015612884573d6000803e3d6000fd5b505050506040513d601f19601f820116820180604052508101906128a8919061461a565b50506040516334924edb60e21b81526001600160a01b038c811660048301529192506000917f0000000000000000000000000000000000000000000000000000000000000000169063d2493b6c90602401606060405180830381865afa158015612916573d6000803e3d6000fd5b505050506040513d601f19601f8201168201806040525081019061293a919061461a565b601480546001600160a01b038088166001600160a01b03199283161790925560158054838516921691909117905590935061299d92508e1690507f0000000000000000000000000000000000000000000000000000000000000000600019613b0a565b6129d36001600160a01b038c167f0000000000000000000000000000000000000000000000000000000000000000600019613b0a565b612a096001600160a01b0383167f0000000000000000000000000000000000000000000000000000000000000000600019613b0a565b505050505050508015612a56576000805461ff0019169055604051600181527f7f26b83ff96e1f2b6a682f133852f6798a09c465da95921460cefb38474024989060200160405180910390a15b5050505050565b828202811515841585830485141716612a7557600080fd5b6001826001830304018115150290509392505050565b828202811515841585830485141716612aa357600080fd5b0492915050565b6116518282604051602401612ac092919061465c565b60408051601f198184030181529190526020810180516001600160e01b03166309710a9d60e41b179052613b81565b60007f8b73c3c69bb8fe3d512ecc4cf759cc79239f7b179b0ffacaa9a75d522b39400f6001604051612b21919061467e565b6040805191829003822060208301939093528101919091527fc89efdaa54c0f20c7adf612882df0950f5a951637e0307cdcb4c672f298b8bc660608201524660808201523060a082015260c00160405160208183030381529060405280519060200120905090565b60006040516323b872dd60e01b81528460048201528360248201528260448201526020600060648360008a5af13d15601f3d1160016000511416171691505080612a565760405162461bcd60e51b81526020600482015260146024820152731514905394d1915497d19493d357d1905253115160621b6044820152606401611027565b8060046000828254612c1e9190614382565b90915550506001600160a01b03821660008181526005602090815260408083208054860190555184815260008051602061488883398151915291015b60405180910390a35050565b612c6e613ba2565b604051632fe4a15f60e21b815230600482015260009081906001600160a01b037f0000000000000000000000000000000000000000000000000000000000000000169063bf92857c9060240160c060405180830381865afa158015612cd7573d6000803e3d6000fd5b505050506040513d601f19601f82011682018060405250810190612cfb91906143d4565b5093955091935060009250612d42915084905067ffffffffffffffff7f000000000000000000000000000000000000000000000000000000000000000016620f4240612a8b565b600b5460405163b3596f0760e01b81526001600160a01b0391821660048201529192506000917f00000000000000000000000000000000000000000000000000000000000000009091169063b3596f0790602401602060405180830381865afa158015612db3573d6000803e3d6000fd5b505050506040513d601f19601f82011682018060405250810190612dd7919061422c565b905082821115612f8e576000612ded848461436b565b90506000612e0482670de0b6b3a764000085612a8b565b600b5460405163a415bcad60e01b81526001600160a01b0391821660048201526024810183905260026044820152600060648201523060848201529192507f0000000000000000000000000000000000000000000000000000000000000000169063a415bcad9060a401600060405180830381600087803b158015612e8857600080fd5b505af1158015612e9c573d6000803e3d6000fd5b5050600b546040516370a0823160e01b8152306004820152600093506001600160a01b0390911691506370a0823190602401602060405180830381865afa158015612eeb573d6000803e3d6000fd5b505050506040513d601f19601f82011682018060405250810190612f0f919061422c565b600d54604051636e553f6560e01b8152600481018390523060248201529192506001600160a01b031690636e553f65906044016020604051808303816000875af1158015612f61573d6000803e3d6000fd5b505050506040513d601f19601f82011682018060405250810190612f85919061422c565b50505050613147565b6000612f9a838561436b565b90506000612fb182670de0b6b3a764000085612a8b565b600d54604051635d043b2960e11b815260048101839052306024820181905260448201529192506001600160a01b03169063ba087652906064016020604051808303816000875af115801561300a573d6000803e3d6000fd5b505050506040513d601f19601f8201168201806040525081019061302e919061422c565b50600b546040516370a0823160e01b81523060048201526000916001600160a01b0316906370a0823190602401602060405180830381865afa158015613078573d6000803e3d6000fd5b505050506040513d601f19601f8201168201806040525081019061309c919061422c565b600b5460405163573ade8160e01b81526001600160a01b03918216600482015260248101839052600260448201523060648201529192507f0000000000000000000000000000000000000000000000000000000000000000169063573ade81906084016020604051808303816000875af115801561311e573d6000803e3d6000fd5b505050506040513d601f19601f82011682018060405250810190613142919061422c565b505050505b50505050565b61315e33613159611368565b612c0c565b565b604051632fe4a15f60e21b8152306004820152600090819081906001600160a01b037f0000000000000000000000000000000000000000000000000000000000000000169063bf92857c9060240160c060405180830381865afa1580156131cb573d6000803e3d6000fd5b505050506040513d601f19601f820116820180604052508101906131ef91906143d4565b5050600a5460405163b3596f0760e01b81526001600160a01b0391821660048201529496509294506000937f00000000000000000000000000000000000000000000000000000000000000009093169263b3596f0792506024019050602060405180830381865afa158015613268573d6000803e3d6000fd5b505050506040513d601f19601f8201168201806040525081019061328c919061422c565b9050600061331e82600a60009054906101000a90046001600160a01b03166001600160a01b031663313ce5676040518163ffffffff1660e01b8152600401602060405180830381865afa1580156132e7573d6000803e3d6000fd5b505050506040513d601f19601f8201168201806040525081019061330b9190614245565b61331690600a61435c565b889190612a8b565b9050600061332c828661436b565b9050600061333e85620f424084612a5d565b98975050505050505050565b604051632fe4a15f60e21b815230600482015260009081906001600160a01b037f0000000000000000000000000000000000000000000000000000000000000000169063bf92857c9060240160c060405180830381865afa1580156133b3573d6000803e3d6000fd5b505050506040513d601f19601f820116820180604052508101906133d791906143d4565b50939550919350600092506133f4915084905085620f4240612a8b565b600b5460405163b3596f0760e01b81526001600160a01b0391821660048201529192506000917f00000000000000000000000000000000000000000000000000000000000000009091169063b3596f0790602401602060405180830381865afa158015613465573d6000803e3d6000fd5b505050506040513d601f19601f82011682018060405250810190613489919061422c565b90508282111561364057600061349f848461436b565b905060006134b682670de0b6b3a764000085612a8b565b600b5460405163a415bcad60e01b81526001600160a01b0391821660048201526024810183905260026044820152600060648201523060848201529192507f0000000000000000000000000000000000000000000000000000000000000000169063a415bcad9060a401600060405180830381600087803b15801561353a57600080fd5b505af115801561354e573d6000803e3d6000fd5b5050600b546040516370a0823160e01b8152306004820152600093506001600160a01b0390911691506370a0823190602401602060405180830381865afa15801561359d573d6000803e3d6000fd5b505050506040513d601f19601f820116820180604052508101906135c1919061422c565b600d54604051636e553f6560e01b8152600481018390523060248201529192506001600160a01b031690636e553f65906044016020604051808303816000875af1158015613613573d6000803e3d6000fd5b505050506040513d601f19601f82011682018060405250810190613637919061422c565b50505050612a56565b600061364c838561436b565b9050600061366382670de0b6b3a764000085612a8b565b90506136926040518060400160405280600b81526020016a1c995c185e505b5bdd5b9d60aa1b81525082612aaa565b600d54604051635d043b2960e11b815260048101839052306024820181905260448201526001600160a01b039091169063ba087652906064016020604051808303816000875af11580156136ea573d6000803e3d6000fd5b505050506040513d601f19601f8201168201806040525081019061370e919061422c565b50600b546040516370a0823160e01b81523060048201526000916001600160a01b0316906370a0823190602401602060405180830381865afa158015613758573d6000803e3d6000fd5b505050506040513d601f19601f8201168201806040525081019061377c919061422c565b90506137a8604051806040016040528060088152602001671c995919595b595960c21b81525082612aaa565b600b5460405163573ade8160e01b81526001600160a01b03918216600482015260248101839052600260448201523060648201527f00000000000000000000000000000000000000000000000000000000000000009091169063573ade81906084016020604051808303816000875af1158015613829573d6000803e3d6000fd5b505050506040513d601f19601f8201168201806040525081019061384d919061422c565b505050505050505050565b6001600160a01b0382166000908152600560205260408120805483929061388090849061436b565b90915550506004805482900390556040518181526000906001600160a01b0384169060008051602061488883398151915290602001612c5a565b600054610100900460ff166138e15760405162461bcd60e51b815260040161102790614719565b6000846001600160a01b03166395d89b416040518163ffffffff1660e01b8152600401600060405180830381865afa158015613921573d6000803e3d6000fd5b505050506040513d6000823e601f3d908101601f19168201604052613949919081019061477a565b90506000846001600160a01b03166395d89b416040518163ffffffff1660e01b8152600401600060405180830381865afa15801561398b573d6000803e3d6000fd5b505050506040513d6000823e601f3d908101601f191682016040526139b3919081019061477a565b90506000836001600160a01b03166306fdde036040518163ffffffff1660e01b8152600401600060405180830381865afa1580156139f5573d6000803e3d6000fd5b505050506040513d6000823e601f3d908101601f19168201604052613a1d919081019061477a565b8383604051602001613a3193929190614827565b60405160208183030381529060405290506000846001600160a01b03166395d89b416040518163ffffffff1660e01b8152600401600060405180830381865afa158015613a82573d6000803e3d6000fd5b505050506040513d6000823e601f3d908101601f19168201604052613aaa919081019061477a565b9050613ab7888383613dad565b600b80546001600160a01b03808a166001600160a01b031992831617909255600c80548984169083168117909155600f805483163317905560108054898516931692909217909155613142918a16906000195b600060405163095ea7b360e01b8152836004820152826024820152602060006044836000895af13d15601f3d11600160005114161716915050806131475760405162461bcd60e51b815260206004820152600e60248201526d1054141493d59157d1905253115160921b6044820152606401611027565b80516a636f6e736f6c652e6c6f67602083016000808483855afa5050505050565b6000613bac6111e6565b6015546040516370a0823160e01b81523060048201529192506000916001600160a01b03909116906370a0823190602401602060405180830381865afa158015613bfa573d6000803e3d6000fd5b505050506040513d601f19601f82011682018060405250810190613c1e919061422c565b90508082111561165157600a546001600160a01b03166000613c40838561436b565b600d54604051632d182be560e21b815260048101839052306024820181905260448201529192506001600160a01b03169063b460af94906064016020604051808303816000875af1158015613c99573d6000803e3d6000fd5b505050506040513d601f19601f82011682018060405250810190613cbd919061422c565b506040516370a0823160e01b81523060048201526000906001600160a01b038416906370a0823190602401602060405180830381865afa158015613d05573d6000803e3d6000fd5b505050506040513d601f19601f82011682018060405250810190613d29919061422c565b60405163e8eda9df60e01b81529091506001600160a01b037f0000000000000000000000000000000000000000000000000000000000000000169063e8eda9df90613d7f9086908590309060009060040161443f565b600060405180830381600087803b158015613d9957600080fd5b505af115801561384d573d6000803e3d6000fd5b600054610100900460ff16613dd45760405162461bcd60e51b815260040161102790614719565b6000836001600160a01b031663313ce5676040518163ffffffff1660e01b8152600401602060405180830381865afa158015613e14573d6000803e3d6000fd5b505050506040513d601f19601f82011682018060405250810190613e389190614245565b9050613e45838383613e6b565b5050600a80546001600160a01b0319166001600160a01b03939093169290921790915550565b600054610100900460ff16613e925760405162461bcd60e51b815260040161102790614719565b8251613ea5906001906020860190613edd565b508151613eb9906002906020850190613edd565b506003805460ff191660ff831617905546600755613ed5612aef565b600855505050565b828054613ee99061439a565b90600052602060002090601f016020900481019282613f0b5760008555613f51565b82601f10613f2457805160ff1916838001178555613f51565b82800160010185558215613f51579182015b82811115613f51578251825591602001919060010190613f36565b50613f5d929150613f61565b5090565b5b80821115613f5d5760008155600101613f62565b60005b83811015613f91578181015183820152602001613f79565b838111156131475750506000910152565b60008151808452613fba816020860160208601613f76565b601f01601f19169290920160200192915050565b602081526000610f506020830184613fa2565b600060208284031215613ff357600080fd5b5035919050565b6001600160a01b038116811461400f57600080fd5b50565b6000806040838503121561402557600080fd5b823561403081613ffa565b946020939093013593505050565b60006020828403121561405057600080fd5b8135610f5081613ffa565b60008060006060848603121561407057600080fd5b833561407b81613ffa565b9250602084013561408b81613ffa565b929592945050506040919091013590565b6001600160a01b0391909116815260200190565b600080604083850312156140c357600080fd5b8235915060208301356140d581613ffa565b809150509250929050565b6000806000606084860312156140f557600080fd5b83359250602084013561410781613ffa565b9150604084013561411781613ffa565b809150509250925092565b60ff8116811461400f57600080fd5b600080600080600080600060e0888a03121561414c57600080fd5b873561415781613ffa565b9650602088013561416781613ffa565b95506040880135945060608801359350608088013561418581614122565b9699959850939692959460a0840135945060c09093013592915050565b600080604083850312156141b557600080fd5b82356141c081613ffa565b915060208301356140d581613ffa565b600080600080608085870312156141e657600080fd5b84356141f181613ffa565b9350602085013561420181613ffa565b9250604085013561421181613ffa565b9150606085013561422181613ffa565b939692955090935050565b60006020828403121561423e57600080fd5b5051919050565b60006020828403121561425757600080fd5b8151610f5081614122565b634e487b7160e01b600052601160045260246000fd5b600181815b808511156142b357816000190482111561429957614299614262565b808516156142a657918102915b93841c939080029061427d565b509250929050565b6000826142ca57506001610fbe565b816142d757506000610fbe565b81600181146142ed57600281146142f757614313565b6001915050610fbe565b60ff84111561430857614308614262565b50506001821b610fbe565b5060208310610133831016604e8410600b8410161715614336575081810a610fbe565b6143408383614278565b806000190482111561435457614354614262565b029392505050565b6000610f5060ff8416836142bb565b60008282101561437d5761437d614262565b500390565b6000821982111561439557614395614262565b500190565b600181811c908216806143ae57607f821691505b6020821081036143ce57634e487b7160e01b600052602260045260246000fd5b50919050565b60008060008060008060c087890312156143ed57600080fd5b865195506020870151945060408701519350606087015192506080870151915060a087015190509295509295509295565b60208082526007908201526621736f7572636560c81b604082015260600190565b6001600160a01b03948516815260208101939093529216604082015261ffff909116606082015260800190565b8051801515811461447c57600080fd5b919050565b60006020828403121561449357600080fd5b610f508261446c565b6000806000806000806000806000806101408b8d0312156144bc57600080fd5b8a51995060208b0151985060408b0151975060608b0151965060808b0151955060a08b0151945060c08b0151935060e08b015192506101008b015191506101208b015164ffffffffff8116811461451257600080fd5b809150509295989b9194979a5092959850565b600081600019048311821515161561453f5761453f614262565b500290565b60008083128015600160ff1b85018412161561456257614562614262565b6001600160ff1b038401831381161561457d5761457d614262565b50500390565b6000806000806000806000806000806101408b8d0312156145a357600080fd5b8a51995060208b0151985060408b0151975060608b0151965060808b015195506145cf60a08c0161446c565b94506145dd60c08c0161446c565b93506145eb60e08c0161446c565b92506145fa6101008c0161446c565b91506146096101208c0161446c565b90509295989b9194979a5092959850565b60008060006060848603121561462f57600080fd5b835161463a81613ffa565b602085015190935061464b81613ffa565b604085015190925061411781613ffa565b60408152600061466f6040830185613fa2565b90508260208301529392505050565b600080835481600182811c91508083168061469a57607f831692505b602080841082036146b957634e487b7160e01b86526022600452602486fd5b8180156146cd57600181146146de5761470b565b60ff1986168952848901965061470b565b60008a81526020902060005b868110156147035781548b8201529085019083016146ea565b505084890196505b509498975050505050505050565b6020808252602b908201527f496e697469616c697a61626c653a20636f6e7472616374206973206e6f74206960408201526a6e697469616c697a696e6760a81b606082015260800190565b634e487b7160e01b600052604160045260246000fd5b60006020828403121561478c57600080fd5b815167ffffffffffffffff808211156147a457600080fd5b818401915084601f8301126147b857600080fd5b8151818111156147ca576147ca614764565b604051601f8201601f19908116603f011681019083821181831017156147f2576147f2614764565b8160405282815287602084870101111561480b57600080fd5b61481c836020830160208801613f76565b979650505050505050565b60008451614839818460208901613f76565b6101d160f51b9083019081528451614858816002840160208901613f76565b602d60f81b60029290910191820152835161487a816003840160208801613f76565b016003019594505050505056feddf252ad1be2c89b69c2b068fc378daa952ba7f163c4a11628f55a4df523b3efa2646970667358221220cee9d45e6a81ccd1b11e74b5fb3db66934b8a9bf5714767b02b8a99b7ac775bc64736f6c634300080d0033",
    "linkReferences": {}
  },
  "methodIdentifiers": {
    "DOMAIN_SEPARATOR()": "3644e515",
    "aToken()": "a0c1f15e",
    "acceptOwner()": "ebbc4965",
    "allowance(address,address)": "dd62ed3e",
    "approve(address,uint256)": "095ea7b3",
    "asset()": "38d52e0f",
    "balanceOf(address)": "70a08231",
    "convertToAssets(uint256)": "07a2d13a",
    "convertToShares(uint256)": "c6e6f592",
    "dataProvider()": "b334ed86",
    "debtToken()": "f8d89898",
    "decimals()": "313ce567",
    "deposit(uint256,address)": "6e553f65",
    "factory()": "c45a0155",
    "getAsset()": "5c222bad",
    "getCapitalUtilization()": "bdde8a48",
    "getCollateralETH()": "b01db078",
    "getCurrentLtv()": "21342b38",
    "getDebtETH()": "f4afdebd",
    "getModuleApr()": "7f240fbf",
    "getProduct()": "4ba20050",
    "getReward()": "3d18b912",
    "getSource()": "afa293d4",
    "getTarget()": "f00e6a2a",
    "implementation()": "5c60da1b",
    "initialize(address,address,address,address)": "f8c8765e",
    "lendingPool()": "a59a9973",
    "lowerBoundLtv()": "203222aa",
    "maxDeposit(address)": "402d267d",
    "maxMint(address)": "c63d75b6",
    "maxRedeem(address)": "d905777e",
    "maxWithdraw(address)": "ce96cb77",
    "mint(uint256,address)": "94bf804d",
    "name()": "06fdde03",
    "nonces(address)": "7ecebe00",
    "oracle()": "7dc0d1d0",
    "owner()": "8da5cb5b",
    "pendingOwner()": "e30c3978",
    "permit(address,address,uint256,uint256,uint8,bytes32,bytes32)": "d505accf",
    "previewDeposit(uint256)": "ef8b30f7",
    "previewMint(uint256)": "b3d7f6b9",
    "previewRedeem(uint256)": "4cdad506",
    "previewWithdraw(uint256)": "0a28a477",
    "product()": "bf9ce952",
    "rebalance()": "7d7c2a1c",
    "rebalanceInterval()": "16d1d916",
    "rebalanceRequired()": "3a794246",
    "rebalanceTimestamp()": "adbd0f8f",
    "redeem(uint256,address,address)": "ba087652",
    "setOwner(address)": "13af4035",
    "setTarget(address)": "776d1a01",
    "source()": "67e828bf",
    "strategy()": "a8c62e76",
    "symbol()": "95d89b41",
    "target()": "d4b83992",
    "targetLtv()": "ec921dc1",
    "totalAssets()": "01e1d114",
    "totalSupply()": "18160ddd",
    "totalTargetBalance()": "2bf8eb1d",
    "transfer(address,uint256)": "a9059cbb",
    "transferFrom(address,address,uint256)": "23b872dd",
    "upperBoundLtv()": "8469415f",
    "withdraw(uint256,address,address)": "b460af94"
  },
  "id": 46
}