{
  "abi": [
    {
      "inputs": [
        {
          "internalType": "address",
          "name": "_owner",
          "type": "address"
        },
        {
          "internalType": "string",
          "name": "_name",
          "type": "string"
        },
        {
          "internalType": "string",
          "name": "_symbol",
          "type": "string"
        },
        {
          "internalType": "address",
          "name": "_unitroller",
          "type": "address"
        },
        {
          "internalType": "address",
          "name": "_oracle",
          "type": "address"
        },
        {
          "internalType": "uint64",
          "name": "_targetLtv",
          "type": "uint64"
        },
        {
          "internalType": "uint64",
          "name": "_lowerBoundLtv",
          "type": "uint64"
        },
        {
          "internalType": "uint64",
          "name": "_upperBoundLtv",
          "type": "uint64"
        },
        {
          "internalType": "uint64",
          "name": "_rebalanceInterval",
          "type": "uint64"
        }
      ],
      "stateMutability": "nonpayable",
      "type": "constructor"
    },
    {
      "anonymous": false,
      "inputs": [
        {
          "indexed": true,
          "internalType": "address",
          "name": "owner",
          "type": "address"
        },
        {
          "indexed": true,
          "internalType": "address",
          "name": "spender",
          "type": "address"
        },
        {
          "indexed": false,
          "internalType": "uint256",
          "name": "amount",
          "type": "uint256"
        }
      ],
      "name": "Approval",
      "type": "event"
    },
    {
      "anonymous": false,
      "inputs": [
        {
          "indexed": true,
          "internalType": "address",
          "name": "caller",
          "type": "address"
        },
        {
          "indexed": true,
          "internalType": "address",
          "name": "owner",
          "type": "address"
        },
        {
          "indexed": false,
          "internalType": "uint256",
          "name": "assets",
          "type": "uint256"
        },
        {
          "indexed": false,
          "internalType": "uint256",
          "name": "shares",
          "type": "uint256"
        }
      ],
      "name": "Deposit",
      "type": "event"
    },
    {
      "anonymous": false,
      "inputs": [
        {
          "indexed": false,
          "internalType": "uint8",
          "name": "version",
          "type": "uint8"
        }
      ],
      "name": "Initialized",
      "type": "event"
    },
    {
      "anonymous": false,
      "inputs": [
        {
          "indexed": true,
          "internalType": "address",
          "name": "caller",
          "type": "address"
        },
        {
          "indexed": false,
          "internalType": "uint256",
          "name": "reward",
          "type": "uint256"
        },
        {
          "indexed": false,
          "internalType": "uint128",
          "name": "timestamp",
          "type": "uint128"
        }
      ],
      "name": "Rebalance",
      "type": "event"
    },
    {
      "anonymous": false,
      "inputs": [
        {
          "indexed": true,
          "internalType": "address",
          "name": "from",
          "type": "address"
        },
        {
          "indexed": true,
          "internalType": "address",
          "name": "to",
          "type": "address"
        },
        {
          "indexed": false,
          "internalType": "uint256",
          "name": "amount",
          "type": "uint256"
        }
      ],
      "name": "Transfer",
      "type": "event"
    },
    {
      "anonymous": false,
      "inputs": [
        {
          "indexed": true,
          "internalType": "address",
          "name": "caller",
          "type": "address"
        },
        {
          "indexed": true,
          "internalType": "address",
          "name": "receiver",
          "type": "address"
        },
        {
          "indexed": true,
          "internalType": "address",
          "name": "owner",
          "type": "address"
        },
        {
          "indexed": false,
          "internalType": "uint256",
          "name": "assets",
          "type": "uint256"
        },
        {
          "indexed": false,
          "internalType": "uint256",
          "name": "shares",
          "type": "uint256"
        }
      ],
      "name": "Withdraw",
      "type": "event"
    },
    {
      "inputs": [],
      "name": "DOMAIN_SEPARATOR",
      "outputs": [
        {
          "internalType": "bytes32",
          "name": "",
          "type": "bytes32"
        }
      ],
      "stateMutability": "view",
      "type": "function"
    },
    {
      "inputs": [],
      "name": "acceptOwner",
      "outputs": [],
      "stateMutability": "nonpayable",
      "type": "function"
    },
    {
      "inputs": [
        {
          "internalType": "address",
          "name": "",
          "type": "address"
        },
        {
          "internalType": "address",
          "name": "",
          "type": "address"
        }
      ],
      "name": "allowance",
      "outputs": [
        {
          "internalType": "uint256",
          "name": "",
          "type": "uint256"
        }
      ],
      "stateMutability": "view",
      "type": "function"
    },
    {
      "inputs": [
        {
          "internalType": "address",
          "name": "spender",
          "type": "address"
        },
        {
          "internalType": "uint256",
          "name": "amount",
          "type": "uint256"
        }
      ],
      "name": "approve",
      "outputs": [
        {
          "internalType": "bool",
          "name": "",
          "type": "bool"
        }
      ],
      "stateMutability": "nonpayable",
      "type": "function"
    },
    {
      "inputs": [],
      "name": "asset",
      "outputs": [
        {
          "internalType": "contract ERC20",
          "name": "",
          "type": "address"
        }
      ],
      "stateMutability": "view",
      "type": "function"
    },
    {
      "inputs": [
        {
          "internalType": "address",
          "name": "",
          "type": "address"
        }
      ],
      "name": "balanceOf",
      "outputs": [
        {
          "internalType": "uint256",
          "name": "",
          "type": "uint256"
        }
      ],
      "stateMutability": "view",
      "type": "function"
    },
    {
      "inputs": [],
      "name": "collateralCToken",
      "outputs": [
        {
          "internalType": "address",
          "name": "",
          "type": "address"
        }
      ],
      "stateMutability": "view",
      "type": "function"
    },
    {
      "inputs": [
        {
          "internalType": "uint256",
          "name": "shares",
          "type": "uint256"
        }
      ],
      "name": "convertToAssets",
      "outputs": [
        {
          "internalType": "uint256",
          "name": "",
          "type": "uint256"
        }
      ],
      "stateMutability": "view",
      "type": "function"
    },
    {
      "inputs": [
        {
          "internalType": "uint256",
          "name": "assets",
          "type": "uint256"
        }
      ],
      "name": "convertToShares",
      "outputs": [
        {
          "internalType": "uint256",
          "name": "",
          "type": "uint256"
        }
      ],
      "stateMutability": "view",
      "type": "function"
    },
    {
      "inputs": [],
      "name": "debtCToken",
      "outputs": [
        {
          "internalType": "address",
          "name": "",
          "type": "address"
        }
      ],
      "stateMutability": "view",
      "type": "function"
    },
    {
      "inputs": [],
      "name": "decimals",
      "outputs": [
        {
          "internalType": "uint8",
          "name": "",
          "type": "uint8"
        }
      ],
      "stateMutability": "view",
      "type": "function"
    },
    {
      "inputs": [
        {
          "internalType": "uint256",
          "name": "assets",
          "type": "uint256"
        },
        {
          "internalType": "address",
          "name": "receiver",
          "type": "address"
        }
      ],
      "name": "deposit",
      "outputs": [
        {
          "internalType": "uint256",
          "name": "shares",
          "type": "uint256"
        }
      ],
      "stateMutability": "nonpayable",
      "type": "function"
    },
    {
      "inputs": [],
      "name": "factory",
      "outputs": [
        {
          "internalType": "address",
          "name": "",
          "type": "address"
        }
      ],
      "stateMutability": "view",
      "type": "function"
    },
    {
      "inputs": [],
      "name": "getAsset",
      "outputs": [
        {
          "internalType": "address",
          "name": "",
          "type": "address"
        }
      ],
      "stateMutability": "view",
      "type": "function"
    },
    {
      "inputs": [],
      "name": "getCapitalUtilization",
      "outputs": [
        {
          "internalType": "uint256",
          "name": "",
          "type": "uint256"
        }
      ],
      "stateMutability": "view",
      "type": "function"
    },
    {
      "inputs": [],
      "name": "getCollateral",
      "outputs": [
        {
          "internalType": "uint256",
          "name": "",
          "type": "uint256"
        }
      ],
      "stateMutability": "view",
      "type": "function"
    },
    {
      "inputs": [],
      "name": "getCurrentLTV",
      "outputs": [
        {
          "internalType": "uint256",
          "name": "",
          "type": "uint256"
        }
      ],
      "stateMutability": "view",
      "type": "function"
    },
    {
      "inputs": [],
      "name": "getDebt",
      "outputs": [
        {
          "internalType": "uint256",
          "name": "",
          "type": "uint256"
        }
      ],
      "stateMutability": "view",
      "type": "function"
    },
    {
      "inputs": [],
      "name": "getModuleApr",
      "outputs": [
        {
          "internalType": "int256",
          "name": "",
          "type": "int256"
        }
      ],
      "stateMutability": "view",
      "type": "function"
    },
    {
      "inputs": [],
      "name": "getProduct",
      "outputs": [
        {
          "internalType": "address",
          "name": "",
          "type": "address"
        }
      ],
      "stateMutability": "view",
      "type": "function"
    },
    {
      "inputs": [],
      "name": "getReward",
      "outputs": [
        {
          "internalType": "uint256",
          "name": "",
          "type": "uint256"
        }
      ],
      "stateMutability": "pure",
      "type": "function"
    },
    {
      "inputs": [],
      "name": "getSource",
      "outputs": [
        {
          "internalType": "address",
          "name": "",
          "type": "address"
        }
      ],
      "stateMutability": "view",
      "type": "function"
    },
    {
      "inputs": [],
      "name": "getTarget",
      "outputs": [
        {
          "internalType": "address",
          "name": "",
          "type": "address"
        }
      ],
      "stateMutability": "view",
      "type": "function"
    },
    {
      "inputs": [],
      "name": "implementation",
      "outputs": [
        {
          "internalType": "address",
          "name": "",
          "type": "address"
        }
      ],
      "stateMutability": "view",
      "type": "function"
    },
    {
      "inputs": [
        {
          "internalType": "address",
          "name": "_asset",
          "type": "address"
        },
        {
          "internalType": "address",
          "name": "_product",
          "type": "address"
        },
        {
          "internalType": "address",
          "name": "_source",
          "type": "address"
        },
        {
          "internalType": "address",
          "name": "_implementation",
          "type": "address"
        }
      ],
      "name": "initialize",
      "outputs": [],
      "stateMutability": "nonpayable",
      "type": "function"
    },
    {
      "inputs": [],
      "name": "lowerBoundLtv",
      "outputs": [
        {
          "internalType": "uint64",
          "name": "",
          "type": "uint64"
        }
      ],
      "stateMutability": "view",
      "type": "function"
    },
    {
      "inputs": [
        {
          "internalType": "address",
          "name": "",
          "type": "address"
        }
      ],
      "name": "maxDeposit",
      "outputs": [
        {
          "internalType": "uint256",
          "name": "",
          "type": "uint256"
        }
      ],
      "stateMutability": "view",
      "type": "function"
    },
    {
      "inputs": [
        {
          "internalType": "address",
          "name": "",
          "type": "address"
        }
      ],
      "name": "maxMint",
      "outputs": [
        {
          "internalType": "uint256",
          "name": "",
          "type": "uint256"
        }
      ],
      "stateMutability": "view",
      "type": "function"
    },
    {
      "inputs": [
        {
          "internalType": "address",
          "name": "owner",
          "type": "address"
        }
      ],
      "name": "maxRedeem",
      "outputs": [
        {
          "internalType": "uint256",
          "name": "",
          "type": "uint256"
        }
      ],
      "stateMutability": "view",
      "type": "function"
    },
    {
      "inputs": [
        {
          "internalType": "address",
          "name": "owner",
          "type": "address"
        }
      ],
      "name": "maxWithdraw",
      "outputs": [
        {
          "internalType": "uint256",
          "name": "",
          "type": "uint256"
        }
      ],
      "stateMutability": "view",
      "type": "function"
    },
    {
      "inputs": [
        {
          "internalType": "uint256",
          "name": "shares",
          "type": "uint256"
        },
        {
          "internalType": "address",
          "name": "receiver",
          "type": "address"
        }
      ],
      "name": "mint",
      "outputs": [
        {
          "internalType": "uint256",
          "name": "assets",
          "type": "uint256"
        }
      ],
      "stateMutability": "nonpayable",
      "type": "function"
    },
    {
      "inputs": [],
      "name": "name",
      "outputs": [
        {
          "internalType": "string",
          "name": "",
          "type": "string"
        }
      ],
      "stateMutability": "view",
      "type": "function"
    },
    {
      "inputs": [
        {
          "internalType": "address",
          "name": "",
          "type": "address"
        }
      ],
      "name": "nonces",
      "outputs": [
        {
          "internalType": "uint256",
          "name": "",
          "type": "uint256"
        }
      ],
      "stateMutability": "view",
      "type": "function"
    },
    {
      "inputs": [],
      "name": "oracle",
      "outputs": [
        {
          "internalType": "contract IPriceOracleGetter",
          "name": "",
          "type": "address"
        }
      ],
      "stateMutability": "view",
      "type": "function"
    },
    {
      "inputs": [],
      "name": "owner",
      "outputs": [
        {
          "internalType": "address",
          "name": "",
          "type": "address"
        }
      ],
      "stateMutability": "view",
      "type": "function"
    },
    {
      "inputs": [],
      "name": "pendingOwner",
      "outputs": [
        {
          "internalType": "address",
          "name": "",
          "type": "address"
        }
      ],
      "stateMutability": "view",
      "type": "function"
    },
    {
      "inputs": [
        {
          "internalType": "address",
          "name": "owner",
          "type": "address"
        },
        {
          "internalType": "address",
          "name": "spender",
          "type": "address"
        },
        {
          "internalType": "uint256",
          "name": "value",
          "type": "uint256"
        },
        {
          "internalType": "uint256",
          "name": "deadline",
          "type": "uint256"
        },
        {
          "internalType": "uint8",
          "name": "v",
          "type": "uint8"
        },
        {
          "internalType": "bytes32",
          "name": "r",
          "type": "bytes32"
        },
        {
          "internalType": "bytes32",
          "name": "s",
          "type": "bytes32"
        }
      ],
      "name": "permit",
      "outputs": [],
      "stateMutability": "nonpayable",
      "type": "function"
    },
    {
      "inputs": [
        {
          "internalType": "uint256",
          "name": "assets",
          "type": "uint256"
        }
      ],
      "name": "previewDeposit",
      "outputs": [
        {
          "internalType": "uint256",
          "name": "",
          "type": "uint256"
        }
      ],
      "stateMutability": "view",
      "type": "function"
    },
    {
      "inputs": [
        {
          "internalType": "uint256",
          "name": "shares",
          "type": "uint256"
        }
      ],
      "name": "previewMint",
      "outputs": [
        {
          "internalType": "uint256",
          "name": "",
          "type": "uint256"
        }
      ],
      "stateMutability": "view",
      "type": "function"
    },
    {
      "inputs": [
        {
          "internalType": "uint256",
          "name": "shares",
          "type": "uint256"
        }
      ],
      "name": "previewRedeem",
      "outputs": [
        {
          "internalType": "uint256",
          "name": "",
          "type": "uint256"
        }
      ],
      "stateMutability": "view",
      "type": "function"
    },
    {
      "inputs": [
        {
          "internalType": "uint256",
          "name": "assets",
          "type": "uint256"
        }
      ],
      "name": "previewWithdraw",
      "outputs": [
        {
          "internalType": "uint256",
          "name": "",
          "type": "uint256"
        }
      ],
      "stateMutability": "view",
      "type": "function"
    },
    {
      "inputs": [],
      "name": "product",
      "outputs": [
        {
          "internalType": "contract ERC20",
          "name": "",
          "type": "address"
        }
      ],
      "stateMutability": "view",
      "type": "function"
    },
    {
      "inputs": [],
      "name": "rebalance",
      "outputs": [],
      "stateMutability": "nonpayable",
      "type": "function"
    },
    {
      "inputs": [],
      "name": "rebalanceInterval",
      "outputs": [
        {
          "internalType": "uint128",
          "name": "",
          "type": "uint128"
        }
      ],
      "stateMutability": "view",
      "type": "function"
    },
    {
      "inputs": [],
      "name": "rebalanceRequired",
      "outputs": [
        {
          "internalType": "bool",
          "name": "",
          "type": "bool"
        }
      ],
      "stateMutability": "pure",
      "type": "function"
    },
    {
      "inputs": [],
      "name": "rebalanceTimestamp",
      "outputs": [
        {
          "internalType": "uint128",
          "name": "",
          "type": "uint128"
        }
      ],
      "stateMutability": "view",
      "type": "function"
    },
    {
      "inputs": [
        {
          "internalType": "uint256",
          "name": "shares",
          "type": "uint256"
        },
        {
          "internalType": "address",
          "name": "receiver",
          "type": "address"
        },
        {
          "internalType": "address",
          "name": "owner",
          "type": "address"
        }
      ],
      "name": "redeem",
      "outputs": [
        {
          "internalType": "uint256",
          "name": "assets",
          "type": "uint256"
        }
      ],
      "stateMutability": "nonpayable",
      "type": "function"
    },
    {
      "inputs": [
        {
          "internalType": "address",
          "name": "_owner",
          "type": "address"
        }
      ],
      "name": "setOwner",
      "outputs": [],
      "stateMutability": "nonpayable",
      "type": "function"
    },
    {
      "inputs": [
        {
          "internalType": "address",
          "name": "_target",
          "type": "address"
        }
      ],
      "name": "setTarget",
      "outputs": [],
      "stateMutability": "nonpayable",
      "type": "function"
    },
    {
      "inputs": [],
      "name": "source",
      "outputs": [
        {
          "internalType": "contract ERC4626",
          "name": "",
          "type": "address"
        }
      ],
      "stateMutability": "view",
      "type": "function"
    },
    {
      "inputs": [],
      "name": "strategy",
      "outputs": [
        {
          "internalType": "contract ERC4626",
          "name": "",
          "type": "address"
        }
      ],
      "stateMutability": "view",
      "type": "function"
    },
    {
      "inputs": [],
      "name": "symbol",
      "outputs": [
        {
          "internalType": "string",
          "name": "",
          "type": "string"
        }
      ],
      "stateMutability": "view",
      "type": "function"
    },
    {
      "inputs": [],
      "name": "target",
      "outputs": [
        {
          "internalType": "contract ERC4626",
          "name": "",
          "type": "address"
        }
      ],
      "stateMutability": "view",
      "type": "function"
    },
    {
      "inputs": [],
      "name": "targetLtv",
      "outputs": [
        {
          "internalType": "uint64",
          "name": "",
          "type": "uint64"
        }
      ],
      "stateMutability": "view",
      "type": "function"
    },
    {
      "inputs": [],
      "name": "totalAssets",
      "outputs": [
        {
          "internalType": "uint256",
          "name": "",
          "type": "uint256"
        }
      ],
      "stateMutability": "view",
      "type": "function"
    },
    {
      "inputs": [],
      "name": "totalSupply",
      "outputs": [
        {
          "internalType": "uint256",
          "name": "",
          "type": "uint256"
        }
      ],
      "stateMutability": "view",
      "type": "function"
    },
    {
      "inputs": [],
      "name": "totalTargetBalance",
      "outputs": [
        {
          "internalType": "uint256",
          "name": "",
          "type": "uint256"
        }
      ],
      "stateMutability": "view",
      "type": "function"
    },
    {
      "inputs": [
        {
          "internalType": "address",
          "name": "to",
          "type": "address"
        },
        {
          "internalType": "uint256",
          "name": "amount",
          "type": "uint256"
        }
      ],
      "name": "transfer",
      "outputs": [
        {
          "internalType": "bool",
          "name": "",
          "type": "bool"
        }
      ],
      "stateMutability": "nonpayable",
      "type": "function"
    },
    {
      "inputs": [
        {
          "internalType": "address",
          "name": "from",
          "type": "address"
        },
        {
          "internalType": "address",
          "name": "to",
          "type": "address"
        },
        {
          "internalType": "uint256",
          "name": "amount",
          "type": "uint256"
        }
      ],
      "name": "transferFrom",
      "outputs": [
        {
          "internalType": "bool",
          "name": "",
          "type": "bool"
        }
      ],
      "stateMutability": "nonpayable",
      "type": "function"
    },
    {
      "inputs": [],
      "name": "unitroller",
      "outputs": [
        {
          "internalType": "contract IUnitroller",
          "name": "",
          "type": "address"
        }
      ],
      "stateMutability": "view",
      "type": "function"
    },
    {
      "inputs": [],
      "name": "upperBoundLtv",
      "outputs": [
        {
          "internalType": "uint64",
          "name": "",
          "type": "uint64"
        }
      ],
      "stateMutability": "view",
      "type": "function"
    },
    {
      "inputs": [
        {
          "internalType": "uint256",
          "name": "assets",
          "type": "uint256"
        },
        {
          "internalType": "address",
          "name": "receiver",
          "type": "address"
        },
        {
          "internalType": "address",
          "name": "owner",
          "type": "address"
        }
      ],
      "name": "withdraw",
      "outputs": [
        {
          "internalType": "uint256",
          "name": "shares",
          "type": "uint256"
        }
      ],
      "stateMutability": "nonpayable",
      "type": "function"
    }
  ],
  "bytecode": {
    "object": "0x6101406040523480156200001257600080fd5b5060405162003995380380620039958339810160408190526200003591620003f3565b601180546001600160a01b0319166001600160a01b038b1617905587516001600160401b038216908a908a908a90620000769060019060208501906200024b565b5080516200008c9060029060208401906200024b565b505050506001600160801b03166080526001600160401b0383811690851611620000eb5760405162461bcd60e51b8152600401620000e29060208082526004908201526310a62a2b60e11b604082015260600190565b60405180910390fd5b6000836001600160401b0316116200012f5760405162461bcd60e51b8152600401620000e29060208082526004908201526310a62a2b60e11b604082015260600190565b836001600160401b0316826001600160401b0316116200017b5760405162461bcd60e51b8152600401620000e29060208082526004908201526310a62a2b60e11b604082015260600190565b620f4240826001600160401b031610620001c15760405162461bcd60e51b8152600401620000e29060208082526004908201526310a62a2b60e11b604082015260600190565b6000816001600160401b031611620002115760405162461bcd60e51b8152602060048201526012602482015271085c9958985b185b98d9525b9d195c9d985b60721b6044820152606401620000e2565b506001600160a01b039485166101005292909316610120526001600160401b0390811660a05291821660c0521660e052506200051d915050565b8280546200025990620004e1565b90600052602060002090601f0160209004810192826200027d5760008555620002c8565b82601f106200029857805160ff1916838001178555620002c8565b82800160010185558215620002c8579182015b82811115620002c8578251825591602001919060010190620002ab565b50620002d6929150620002da565b5090565b5b80821115620002d65760008155600101620002db565b80516001600160a01b03811681146200030957600080fd5b919050565b634e487b7160e01b600052604160045260246000fd5b600082601f8301126200033657600080fd5b81516001600160401b03808211156200035357620003536200030e565b604051601f8301601f19908116603f011681019082821181831017156200037e576200037e6200030e565b816040528381526020925086838588010111156200039b57600080fd5b600091505b83821015620003bf5785820183015181830184015290820190620003a0565b83821115620003d15760008385830101525b9695505050505050565b80516001600160401b03811681146200030957600080fd5b60008060008060008060008060006101208a8c0312156200041357600080fd5b6200041e8a620002f1565b60208b01519099506001600160401b03808211156200043c57600080fd5b6200044a8d838e0162000324565b995060408c01519150808211156200046157600080fd5b50620004708c828d0162000324565b9750506200048160608b01620002f1565b95506200049160808b01620002f1565b9450620004a160a08b01620003db565b9350620004b160c08b01620003db565b9250620004c160e08b01620003db565b9150620004d26101008b01620003db565b90509295985092959850929598565b600181811c90821680620004f657607f821691505b6020821081036200051757634e487b7160e01b600052602260045260246000fd5b50919050565b60805160a05160c05160e05161010051610120516133f76200059e600039600061064101526000818161076001528181610ed801528181610fbd01528181611c4c01528181611e6b0152818161201401526121320152600081816106880152611f88015260006104cc015260006108710152600061048401526133f76000f3fe608060405234801561001057600080fd5b50600436106103ba5760003560e01c80637ecebe00116101f4578063bf9ce9521161011a578063dd62ed3e116100ad578063ec921dc11161007c578063ec921dc11461086c578063ef8b30f7146107b1578063f00e6a2a14610893578063f8c8765e146108a457600080fd5b8063dd62ed3e14610826578063e30c397814610851578063e862114914610478578063ebbc49651461086457600080fd5b8063ce96cb77116100e9578063ce96cb77146107c4578063d4b83992146107d7578063d505accf146107ea578063d905777e146107fd57600080fd5b8063bf9ce9521461078b578063c45a01551461079e578063c63d75b614610563578063c6e6f592146107b157600080fd5b8063a9059cbb11610192578063b460af9411610161578063b460af9414610735578063ba08765214610748578063bad1d3da1461075b578063bdde8a481461078257600080fd5b8063a9059cbb146106eb578063adbd0f8f146106fe578063afa293d414610711578063b3d7f6b91461072257600080fd5b80638da5cb5b116101ce5780638da5cb5b146106aa57806394bf804d146106bd57806395d89b41146106d0578063a8c62e76146106d857600080fd5b80637ecebe00146106635780637f240fbf146104785780638469415f1461068357600080fd5b806338d52e0f116102e45780635c60da1b1161027757806370a082311161024657806370a0823114610601578063776d1a01146106215780637d7c2a1c146106345780637dc0d1d01461063c57600080fd5b80635c60da1b146105b55780635c9189bf146105c857806367e828bf146105db5780636e553f65146105ee57600080fd5b80634ba20050116102b35780634ba20050146105785780634cdad506146105895780635c1548fb1461059c5780635c222bad146105a457600080fd5b806338d52e0f146105495780633a7942461461055c5780633d18b91214610478578063402d267d1461056357600080fd5b806314a6bf0f1161035c57806323b872dd1161032b57806323b872dd146105075780632bf8eb1d1461051a578063313ce567146105225780633644e5151461054157600080fd5b806314a6bf0f1461047857806316d1d9161461047f57806318160ddd146104be578063203222aa146104c757600080fd5b806307a2d13a1161039857806307a2d13a1461041a578063095ea7b31461042d5780630a28a4771461045057806313af40351461046357600080fd5b806301e1d114146103bf57806306b0d8d5146103da57806306fdde0314610405575b600080fd5b6103c76108b7565b6040519081526020015b60405180910390f35b6015546103ed906001600160a01b031681565b6040516001600160a01b0390911681526020016103d1565b61040d610b62565b6040516103d19190612ab7565b6103c7610428366004612aca565b610bf0565b61044061043b366004612afb565b610c1d565b60405190151581526020016103d1565b6103c761045e366004612aca565b610c8a565b610476610471366004612b27565b610caa565b005b60006103c7565b6104a67f000000000000000000000000000000000000000000000000000000000000000081565b6040516001600160801b0390911681526020016103d1565b6103c760045481565b6104ee7f000000000000000000000000000000000000000000000000000000000000000081565b60405167ffffffffffffffff90911681526020016103d1565b610440610515366004612b44565b610d18565b6103c7610df8565b60035461052f9060ff1681565b60405160ff90911681526020016103d1565b6103c7610e8f565b600a546103ed906001600160a01b031681565b6000610440565b6103c7610571366004612b27565b5060001990565b600b546001600160a01b03166103ed565b6103c7610597366004612aca565b610ea9565b6103c7610eb4565b600a546001600160a01b03166103ed565b6010546103ed906001600160a01b031681565b6014546103ed906001600160a01b031681565b600c546103ed906001600160a01b031681565b6103c76105fc366004612b85565b61103b565b6103c761060f366004612b27565b60056020526000908152604090205481565b61047661062f366004612b27565b611200565b6104766112db565b6103ed7f000000000000000000000000000000000000000000000000000000000000000081565b6103c7610671366004612b27565b60096020526000908152604090205481565b6104ee7f000000000000000000000000000000000000000000000000000000000000000081565b6011546103ed906001600160a01b031681565b6103c76106cb366004612b85565b61131b565b61040d611458565b600e546103ed906001600160a01b031681565b6104406106f9366004612afb565b611465565b6013546104a6906001600160801b031681565b600c546001600160a01b03166103ed565b6103c7610730366004612aca565b6114cb565b6103c7610743366004612bb5565b6114ea565b6103c7610756366004612bb5565b6116aa565b6103ed7f000000000000000000000000000000000000000000000000000000000000000081565b620f42406103c7565b600b546103ed906001600160a01b031681565b600f546103ed906001600160a01b031681565b6103c76107bf366004612aca565b61189b565b6103c76107d2366004612b27565b6118bb565b600d546103ed906001600160a01b031681565b6104766107f8366004612c06565b6118dd565b6103c761080b366004612b27565b6001600160a01b031660009081526005602052604090205490565b6103c7610834366004612c77565b600660209081526000928352604080842090915290825290205481565b6012546103ed906001600160a01b031681565b610476611b21565b6104ee7f000000000000000000000000000000000000000000000000000000000000000081565b600d546001600160a01b03166103ed565b6104766108b2366004612ca5565b611b88565b6014546040516370a0823160e01b81523060048201526000916001600160a01b031690829082906370a0823190602401602060405180830381865afa158015610904573d6000803e3d6000fd5b505050506040513d601f19601f820116820180604052508101906109289190612d01565b905061095d60405180604001604052806011815260200170636f6c6c61746572616c42616c616e636560781b815250826122b7565b6000826001600160a01b031663182df0f56040518163ffffffff1660e01b8152600401602060405180830381865afa15801561099d573d6000803e3d6000fd5b505050506040513d601f19601f820116820180604052508101906109c19190612d01565b90506109f16040518060400160405280600c81526020016b65786368616e67655261746560a01b815250826122b7565b604080518082019091526008815267646563696d616c7360c01b6020820152600354610a20919060ff166122b7565b610ab56040518060400160405280600f81526020016e63546f6b656e20646563696d616c7360881b815250846001600160a01b031663313ce5676040518163ffffffff1660e01b8152600401602060405180830381865afa158015610a89573d6000803e3d6000fd5b505050506040513d601f19601f82011682018060405250810190610aad9190612d1a565b60ff166122b7565b600354610b5a90610aca9060ff16600a612e31565b610ad49083612e40565b846001600160a01b031663313ce5676040518163ffffffff1660e01b8152600401602060405180830381865afa158015610b12573d6000803e3d6000fd5b505050506040513d601f19601f82011682018060405250810190610b369190612d1a565b610b4190600a612e31565b610b5290662386f26fc10000612e40565b8491906122fc565b935050505090565b60018054610b6f90612e5f565b80601f0160208091040260200160405190810160405280929190818152602001828054610b9b90612e5f565b8015610be85780601f10610bbd57610100808354040283529160200191610be8565b820191906000526020600020905b815481529060010190602001808311610bcb57829003601f168201915b505050505081565b6004546000908015610c1457610c0f610c076108b7565b8490836122fc565b610c16565b825b9392505050565b3360008181526006602090815260408083206001600160a01b038716808552925280832085905551919290917f8c5be1e5ebec7d5bd14f71427d1e84f3dd0314c0f7b2291e5b200ac8c7c3b92590610c789086815260200190565b60405180910390a35060015b92915050565b6004546000908015610c1457610c0f81610ca26108b7565b85919061231b565b6011546001600160a01b03163314610cf65760405162461bcd60e51b815260206004820152600a60248201526908585d5d1bdc9a5e995960b21b60448201526064015b60405180910390fd5b601280546001600160a01b0319166001600160a01b0392909216919091179055565b6001600160a01b03831660009081526006602090815260408083203384529091528120546000198114610d7457610d4f8382612e99565b6001600160a01b03861660009081526006602090815260408083203384529091529020555b6001600160a01b03851660009081526005602052604081208054859290610d9c908490612e99565b90915550506001600160a01b03808516600081815260056020526040908190208054870190555190918716906000805160206133a283398151915290610de59087815260200190565b60405180910390a3506001949350505050565b600d546000906001600160a01b0316610e1857610e136108b7565b905090565b600d60009054906101000a90046001600160a01b03166001600160a01b03166301e1d1146040518163ffffffff1660e01b8152600401602060405180830381865afa158015610e6b573d6000803e3d6000fd5b505050506040513d601f19601f82011682018060405250810190610e139190612d01565b60006007544614610ea257610e13612349565b5060085490565b6000610c8482610bf0565b604051635ec88c7960e01b8152306004820152600090819081906001600160a01b037f00000000000000000000000000000000000000000000000000000000000000001690635ec88c7990602401606060405180830381865afa158015610f1f573d6000803e3d6000fd5b505050506040513d601f19601f82011682018060405250810190610f439190612eb0565b509150915081600014610f985760405162461bcd60e51b815260206004820152601a60248201527f6765744163636f756e744c6971756964697479206661696c65640000000000006044820152606401610ced565b601454604051638e8f294b60e01b81526001600160a01b0391821660048201526000917f00000000000000000000000000000000000000000000000000000000000000001690638e8f294b90602401606060405180830381865afa158015611004573d6000803e3d6000fd5b505050506040513d601f19601f820116820180604052508101906110289190612ef3565b509150610b5a905082620f4240836122fc565b600c5460009082906001600160a01b031633811461106b5760405162461bcd60e51b8152600401610ced90612f28565b806001600160a01b0316826001600160a01b03161461109c5760405162461bcd60e51b8152600401610ced90612f28565b6110a58561189b565b9250826000036110e15760405162461bcd60e51b81526020600482015260076024820152662173686172657360c81b6044820152606401610ced565b600a546110f9906001600160a01b03163330886123e3565b60145460405163140e25ad60e31b8152600481018790526000916001600160a01b03169063a0712d68906024016020604051808303816000875af1158015611145573d6000803e3d6000fd5b505050506040513d601f19601f820116820180604052508101906111699190612d01565b905080156111a75760405162461bcd60e51b815260206004820152600b60248201526a10b6b4b73a1032b93937b960a91b6044820152606401610ced565b6111b18585612466565b60408051878152602081018690526001600160a01b0387169133917fdcbc1c05240f31ff3ad067ef1ee35ce4997762752e3a095284754544f4c709d7910160405180910390a350505092915050565b600d546001600160a01b0316156112485760405162461bcd60e51b815260206004820152600c60248201526b085a5b9a5d1a585b1a5e995960a21b6044820152606401610ced565b600d80546001600160a01b0319166001600160a01b03838116918217909255600b5460405163095ea7b360e01b8152600481019290925260001960248301529091169063095ea7b3906044016020604051808303816000875af11580156112b3573d6000803e3d6000fd5b505050506040513d601f19601f820116820180604052508101906112d79190612f49565b5050565b60405162461bcd60e51b8152602060048201526015602482015274085c9958985b185b98d9539bdd14995c5d5a5c9959605a1b6044820152606401610ced565b600c5460009082906001600160a01b031633811461134b5760405162461bcd60e51b8152600401610ced90612f28565b806001600160a01b0316826001600160a01b03161461137c5760405162461bcd60e51b8152600401610ced90612f28565b611385856114cb565b600a549093506113a0906001600160a01b03163330866123e3565b60145460405163140e25ad60e31b8152600481018590526000916001600160a01b03169063a0712d68906024016020604051808303816000875af11580156113ec573d6000803e3d6000fd5b505050506040513d601f19601f820116820180604052508101906114109190612d01565b9050801561144e5760405162461bcd60e51b815260206004820152600b60248201526a10b6b4b73a1032b93937b960a91b6044820152606401610ced565b6111b18587612466565b60028054610b6f90612e5f565b33600090815260056020526040812080548391908390611486908490612e99565b90915550506001600160a01b038316600081815260056020526040908190208054850190555133906000805160206133a283398151915290610c789086815260200190565b6004546000908015610c1457610c0f6114e26108b7565b84908361231b565b600c5460009082906001600160a01b031633811461151a5760405162461bcd60e51b8152600401610ced90612f28565b806001600160a01b0316826001600160a01b03161461154b5760405162461bcd60e51b8152600401610ced90612f28565b61155486610c8a565b9250336001600160a01b038516146115c4576001600160a01b038416600090815260066020908152604080832033845290915290205460001981146115c25761159d8482612e99565b6001600160a01b03861660009081526006602090815260408083203384529091529020555b505b6115ce84846124c0565b60145460405163852a12e360e01b8152600481018890526001600160a01b039091169063852a12e3906024016020604051808303816000875af1158015611619573d6000803e3d6000fd5b505050506040513d601f19601f8201168201806040525081019061163d9190612d01565b50600a54611655906001600160a01b03168688612522565b60408051878152602081018590526001600160a01b03808816929087169133917ffbde797d201c681b91056529119e0b02407c7bb96a4a2c75c01fc9667232c8db91015b60405180910390a450509392505050565b600c5460009082906001600160a01b03163381146116da5760405162461bcd60e51b8152600401610ced90612f28565b806001600160a01b0316826001600160a01b03161461170b5760405162461bcd60e51b8152600401610ced90612f28565b61171486610ea9565b9250826000036117545760405162461bcd60e51b815260206004820152600b60248201526a5a45524f5f41535345545360a81b6044820152606401610ced565b336001600160a01b038516146117c2576001600160a01b038416600090815260066020908152604080832033845290915290205460001981146117c05761179b8782612e99565b6001600160a01b03861660009081526006602090815260408083203384529091529020555b505b6117cc84876124c0565b60145460405163852a12e360e01b8152600481018590526001600160a01b039091169063852a12e3906024016020604051808303816000875af1158015611817573d6000803e3d6000fd5b505050506040513d601f19601f8201168201806040525081019061183b9190612d01565b50600a54611853906001600160a01b03168685612522565b60408051848152602081018890526001600160a01b03808816929087169133917ffbde797d201c681b91056529119e0b02407c7bb96a4a2c75c01fc9667232c8db9101611699565b6004546000908015610c1457610c0f816118b36108b7565b8591906122fc565b6001600160a01b038116600090815260056020526040812054610c8490610bf0565b4284101561192d5760405162461bcd60e51b815260206004820152601760248201527f5045524d49545f444541444c494e455f455850495245440000000000000000006044820152606401610ced565b60006001611939610e8f565b6001600160a01b038a811660008181526009602090815260409182902080546001810190915582517f6e71edae12b1b97f4d1f60370fef10105fa2faae0126114a169c64845d6126c98184015280840194909452938d166060840152608083018c905260a083019390935260c08083018b90528151808403909101815260e08301909152805192019190912061190160f01b6101008301526101028201929092526101228101919091526101420160408051601f198184030181528282528051602091820120600084529083018083525260ff871690820152606081018590526080810184905260a0016020604051602081039080840390855afa158015611a45573d6000803e3d6000fd5b5050604051601f1901519150506001600160a01b03811615801590611a7b5750876001600160a01b0316816001600160a01b0316145b611ab85760405162461bcd60e51b815260206004820152600e60248201526d24a72b20a624a22fa9a4a3a722a960911b6044820152606401610ced565b6001600160a01b0390811660009081526006602090815260408083208a8516808552908352928190208990555188815291928a16917f8c5be1e5ebec7d5bd14f71427d1e84f3dd0314c0f7b2291e5b200ac8c7c3b925910160405180910390a350505050505050565b6012546001600160a01b03163314611b685760405162461bcd60e51b815260206004820152600a60248201526908585d5d1bdc9a5e995960b21b6044820152606401610ced565b601180546001600160a01b03199081163317909155601280549091169055565b600054610100900460ff1615808015611ba85750600054600160ff909116105b80611bc25750303b158015611bc2575060005460ff166001145b611c255760405162461bcd60e51b815260206004820152602e60248201527f496e697469616c697a61626c653a20636f6e747261637420697320616c72656160448201526d191e481a5b9a5d1a585b1a5e995960921b6064820152608401610ced565b6000805460ff191660011790558015611c48576000805461ff0019166101001790555b60007f00000000000000000000000000000000000000000000000000000000000000006001600160a01b031663b0772d0b6040518163ffffffff1660e01b8152600401600060405180830381865afa158015611ca8573d6000803e3d6000fd5b505050506040513d6000823e601f3d908101601f19168201604052611cd09190810190612fcf565b905060008060005b8351811015611db8576000848281518110611cf557611cf561306e565b602002602001015190506000816001600160a01b0316636f307dc36040518163ffffffff1660e01b8152600401602060405180830381865afa158015611d3f573d6000803e3d6000fd5b505050506040513d601f19601f82011682018060405250810190611d639190613084565b90508a6001600160a01b0316816001600160a01b031603611d8657819450611da3565b896001600160a01b0316816001600160a01b031603611da3578193505b50508080611db0906130a1565b915050611cd8565b506001600160a01b038216611e035760405162461bcd60e51b815260206004820152601160248201527010b1b7b63630ba32b930b621aa37b5b2b760791b6044820152606401610ced565b6001600160a01b038116611e475760405162461bcd60e51b815260206004820152600b60248201526a10b232b13a21aa37b5b2b760a91b6044820152606401610ced565b604051638e8f294b60e01b81526001600160a01b03838116600483015260009182917f00000000000000000000000000000000000000000000000000000000000000001690638e8f294b90602401606060405180830381865afa158015611eb2573d6000803e3d6000fd5b505050506040513d601f19601f82011682018060405250810190611ed69190612ef3565b509092509050611ef281620f4240670de0b6b3a76400006122fc565b905081611f415760405162461bcd60e51b815260206004820152601960248201527f21436f6c6c61746572616c2063546f6b656e204c6973746564000000000000006044820152606401610ced565b60008111611f865760405162461bcd60e51b815260206004820152601260248201527110a1b7b63630ba32b930b6102330b1ba37b960711b6044820152606401610ced565b7f000000000000000000000000000000000000000000000000000000000000000067ffffffffffffffff16811015611ff55760405162461bcd60e51b815260206004820152601260248201527110a1b7b63630ba32b930b6102330b1ba37b960711b6044820152606401610ced565b604051638e8f294b60e01b81526001600160a01b0384811660048301527f00000000000000000000000000000000000000000000000000000000000000001690638e8f294b90602401606060405180830381865afa15801561205b573d6000803e3d6000fd5b505050506040513d601f19601f8201168201806040525081019061207f9190612ef3565b509092508290506120c85760405162461bcd60e51b8152602060048201526013602482015272085119589d0818d51bdad95b88131a5cdd1959606a1b6044820152606401610ced565b6120d48a8a8a8a6125a0565b60408051600180825281830190925260009160208083019080368337019050509050848160008151811061210a5761210a61306e565b6001600160a01b039283166020918202929092010152604051631853304760e31b81526000917f0000000000000000000000000000000000000000000000000000000000000000169063c2998238906121679085906004016130ba565b6000604051808303816000875af1158015612186573d6000803e3d6000fd5b505050506040513d6000823e601f3d908101601f191682016040526121ae9190810190613107565b9050806000815181106121c3576121c361306e565b60200260200101516000146122105760405162461bcd60e51b8152602060048201526013602482015272195b9d195c93585c9ad95d1cc819985a5b1959606a1b6044820152606401610ced565b601480546001600160a01b038089166001600160a01b03199283161790925560158054888416921691909117905561224d908d16876000196127fe565b6122636001600160a01b038c16866000196127fe565b5050505050505080156122b0576000805461ff0019169055604051600181527f7f26b83ff96e1f2b6a682f133852f6798a09c465da95921460cefb38474024989060200160405180910390a15b5050505050565b6112d782826040516024016122cd92919061318d565b60408051601f198184030181529190526020810180516001600160e01b03166309710a9d60e41b179052612875565b82820281151584158583048514171661231457600080fd5b0492915050565b82820281151584158583048514171661233357600080fd5b6001826001830304018115150290509392505050565b60007f8b73c3c69bb8fe3d512ecc4cf759cc79239f7b179b0ffacaa9a75d522b39400f600160405161237b91906131af565b6040805191829003822060208301939093528101919091527fc89efdaa54c0f20c7adf612882df0950f5a951637e0307cdcb4c672f298b8bc660608201524660808201523060a082015260c00160405160208183030381529060405280519060200120905090565b60006040516323b872dd60e01b81528460048201528360248201528260448201526020600060648360008a5af13d15601f3d11600160005114161716915050806122b05760405162461bcd60e51b81526020600482015260146024820152731514905394d1915497d19493d357d1905253115160621b6044820152606401610ced565b8060046000828254612478919061324a565b90915550506001600160a01b0382166000818152600560209081526040808320805486019055518481526000805160206133a283398151915291015b60405180910390a35050565b6001600160a01b038216600090815260056020526040812080548392906124e8908490612e99565b90915550506004805482900390556040518181526000906001600160a01b038416906000805160206133a2833981519152906020016124b4565b600060405163a9059cbb60e01b8152836004820152826024820152602060006044836000895af13d15601f3d116001600051141617169150508061259a5760405162461bcd60e51b815260206004820152600f60248201526e1514905394d1915497d19052531151608a1b6044820152606401610ced565b50505050565b600054610100900460ff166125c75760405162461bcd60e51b8152600401610ced90613262565b6000846001600160a01b03166395d89b416040518163ffffffff1660e01b8152600401600060405180830381865afa158015612607573d6000803e3d6000fd5b505050506040513d6000823e601f3d908101601f1916820160405261262f91908101906132ad565b90506000846001600160a01b03166395d89b416040518163ffffffff1660e01b8152600401600060405180830381865afa158015612671573d6000803e3d6000fd5b505050506040513d6000823e601f3d908101601f1916820160405261269991908101906132ad565b90506000836001600160a01b03166306fdde036040518163ffffffff1660e01b8152600401600060405180830381865afa1580156126db573d6000803e3d6000fd5b505050506040513d6000823e601f3d908101601f1916820160405261270391908101906132ad565b838360405160200161271793929190613341565b60405160208183030381529060405290506000846001600160a01b03166395d89b416040518163ffffffff1660e01b8152600401600060405180830381865afa158015612768573d6000803e3d6000fd5b505050506040513d6000823e601f3d908101601f1916820160405261279091908101906132ad565b905061279d888383612896565b600b80546001600160a01b03808a166001600160a01b031992831617909255600c80548984169083168117909155600f8054831633179055601080548985169316929092179091556127f4918a16906000196127fe565b5050505050505050565b600060405163095ea7b360e01b8152836004820152826024820152602060006044836000895af13d15601f3d116001600051141617169150508061259a5760405162461bcd60e51b815260206004820152600e60248201526d1054141493d59157d1905253115160921b6044820152606401610ced565b80516a636f6e736f6c652e6c6f67602083016000808483855afa5050505050565b600054610100900460ff166128bd5760405162461bcd60e51b8152600401610ced90613262565b6000836001600160a01b031663313ce5676040518163ffffffff1660e01b8152600401602060405180830381865afa1580156128fd573d6000803e3d6000fd5b505050506040513d601f19601f820116820180604052508101906129219190612d1a565b905061292e838383612954565b5050600a80546001600160a01b0319166001600160a01b03939093169290921790915550565b600054610100900460ff1661297b5760405162461bcd60e51b8152600401610ced90613262565b825161298e9060019060208601906129c6565b5081516129a29060029060208501906129c6565b506003805460ff191660ff8316179055466007556129be612349565b600855505050565b8280546129d290612e5f565b90600052602060002090601f0160209004810192826129f45760008555612a3a565b82601f10612a0d57805160ff1916838001178555612a3a565b82800160010185558215612a3a579182015b82811115612a3a578251825591602001919060010190612a1f565b50612a46929150612a4a565b5090565b5b80821115612a465760008155600101612a4b565b60005b83811015612a7a578181015183820152602001612a62565b8381111561259a5750506000910152565b60008151808452612aa3816020860160208601612a5f565b601f01601f19169290920160200192915050565b602081526000610c166020830184612a8b565b600060208284031215612adc57600080fd5b5035919050565b6001600160a01b0381168114612af857600080fd5b50565b60008060408385031215612b0e57600080fd5b8235612b1981612ae3565b946020939093013593505050565b600060208284031215612b3957600080fd5b8135610c1681612ae3565b600080600060608486031215612b5957600080fd5b8335612b6481612ae3565b92506020840135612b7481612ae3565b929592945050506040919091013590565b60008060408385031215612b9857600080fd5b823591506020830135612baa81612ae3565b809150509250929050565b600080600060608486031215612bca57600080fd5b833592506020840135612bdc81612ae3565b91506040840135612bec81612ae3565b809150509250925092565b60ff81168114612af857600080fd5b600080600080600080600060e0888a031215612c2157600080fd5b8735612c2c81612ae3565b96506020880135612c3c81612ae3565b955060408801359450606088013593506080880135612c5a81612bf7565b9699959850939692959460a0840135945060c09093013592915050565b60008060408385031215612c8a57600080fd5b8235612c9581612ae3565b91506020830135612baa81612ae3565b60008060008060808587031215612cbb57600080fd5b8435612cc681612ae3565b93506020850135612cd681612ae3565b92506040850135612ce681612ae3565b91506060850135612cf681612ae3565b939692955090935050565b600060208284031215612d1357600080fd5b5051919050565b600060208284031215612d2c57600080fd5b8151610c1681612bf7565b634e487b7160e01b600052601160045260246000fd5b600181815b80851115612d88578160001904821115612d6e57612d6e612d37565b80851615612d7b57918102915b93841c9390800290612d52565b509250929050565b600082612d9f57506001610c84565b81612dac57506000610c84565b8160018114612dc25760028114612dcc57612de8565b6001915050610c84565b60ff841115612ddd57612ddd612d37565b50506001821b610c84565b5060208310610133831016604e8410600b8410161715612e0b575081810a610c84565b612e158383612d4d565b8060001904821115612e2957612e29612d37565b029392505050565b6000610c1660ff841683612d90565b6000816000190483118215151615612e5a57612e5a612d37565b500290565b600181811c90821680612e7357607f821691505b602082108103612e9357634e487b7160e01b600052602260045260246000fd5b50919050565b600082821015612eab57612eab612d37565b500390565b600080600060608486031215612ec557600080fd5b8351925060208401519150604084015190509250925092565b80518015158114612eee57600080fd5b919050565b600080600060608486031215612f0857600080fd5b612f1184612ede565b9250602084015191506040840151612bec81612bf7565b60208082526007908201526621736f7572636560c81b604082015260600190565b600060208284031215612f5b57600080fd5b610c1682612ede565b634e487b7160e01b600052604160045260246000fd5b604051601f8201601f1916810167ffffffffffffffff81118282101715612fa357612fa3612f64565b604052919050565b600067ffffffffffffffff821115612fc557612fc5612f64565b5060051b60200190565b60006020808385031215612fe257600080fd5b825167ffffffffffffffff811115612ff957600080fd5b8301601f8101851361300a57600080fd5b805161301d61301882612fab565b612f7a565b81815260059190911b8201830190838101908783111561303c57600080fd5b928401925b8284101561306357835161305481612ae3565b82529284019290840190613041565b979650505050505050565b634e487b7160e01b600052603260045260246000fd5b60006020828403121561309657600080fd5b8151610c1681612ae3565b6000600182016130b3576130b3612d37565b5060010190565b6020808252825182820181905260009190848201906040850190845b818110156130fb5783516001600160a01b0316835292840192918401916001016130d6565b50909695505050505050565b6000602080838503121561311a57600080fd5b825167ffffffffffffffff81111561313157600080fd5b8301601f8101851361314257600080fd5b805161315061301882612fab565b81815260059190911b8201830190838101908783111561316f57600080fd5b928401925b8284101561306357835182529284019290840190613174565b6040815260006131a06040830185612a8b565b90508260208301529392505050565b600080835481600182811c9150808316806131cb57607f831692505b602080841082036131ea57634e487b7160e01b86526022600452602486fd5b8180156131fe576001811461320f5761323c565b60ff1986168952848901965061323c565b60008a81526020902060005b868110156132345781548b82015290850190830161321b565b505084890196505b509498975050505050505050565b6000821982111561325d5761325d612d37565b500190565b6020808252602b908201527f496e697469616c697a61626c653a20636f6e7472616374206973206e6f74206960408201526a6e697469616c697a696e6760a81b606082015260800190565b6000602082840312156132bf57600080fd5b815167ffffffffffffffff808211156132d757600080fd5b818401915084601f8301126132eb57600080fd5b8151818111156132fd576132fd612f64565b613310601f8201601f1916602001612f7a565b915080825285602082850101111561332757600080fd5b613338816020840160208601612a5f565b50949350505050565b60008451613353818460208901612a5f565b6101d160f51b9083019081528451613372816002840160208901612a5f565b602d60f81b600292909101918201528351613394816003840160208801612a5f565b016003019594505050505056feddf252ad1be2c89b69c2b068fc378daa952ba7f163c4a11628f55a4df523b3efa26469706673582212209eb1deec6ea2a1518087268e6e27348d0aba19af1c2934aa11dd39c99a95556564736f6c634300080d0033",
    "linkReferences": {}
  },
  "methodIdentifiers": {
    "DOMAIN_SEPARATOR()": "3644e515",
    "acceptOwner()": "ebbc4965",
    "allowance(address,address)": "dd62ed3e",
    "approve(address,uint256)": "095ea7b3",
    "asset()": "38d52e0f",
    "balanceOf(address)": "70a08231",
    "collateralCToken()": "5c9189bf",
    "convertToAssets(uint256)": "07a2d13a",
    "convertToShares(uint256)": "c6e6f592",
    "debtCToken()": "06b0d8d5",
    "decimals()": "313ce567",
    "deposit(uint256,address)": "6e553f65",
    "factory()": "c45a0155",
    "getAsset()": "5c222bad",
    "getCapitalUtilization()": "bdde8a48",
    "getCollateral()": "5c1548fb",
    "getCurrentLTV()": "e8621149",
    "getDebt()": "14a6bf0f",
    "getModuleApr()": "7f240fbf",
    "getProduct()": "4ba20050",
    "getReward()": "3d18b912",
    "getSource()": "afa293d4",
    "getTarget()": "f00e6a2a",
    "implementation()": "5c60da1b",
    "initialize(address,address,address,address)": "f8c8765e",
    "lowerBoundLtv()": "203222aa",
    "maxDeposit(address)": "402d267d",
    "maxMint(address)": "c63d75b6",
    "maxRedeem(address)": "d905777e",
    "maxWithdraw(address)": "ce96cb77",
    "mint(uint256,address)": "94bf804d",
    "name()": "06fdde03",
    "nonces(address)": "7ecebe00",
    "oracle()": "7dc0d1d0",
    "owner()": "8da5cb5b",
    "pendingOwner()": "e30c3978",
    "permit(address,address,uint256,uint256,uint8,bytes32,bytes32)": "d505accf",
    "previewDeposit(uint256)": "ef8b30f7",
    "previewMint(uint256)": "b3d7f6b9",
    "previewRedeem(uint256)": "4cdad506",
    "previewWithdraw(uint256)": "0a28a477",
    "product()": "bf9ce952",
    "rebalance()": "7d7c2a1c",
    "rebalanceInterval()": "16d1d916",
    "rebalanceRequired()": "3a794246",
    "rebalanceTimestamp()": "adbd0f8f",
    "redeem(uint256,address,address)": "ba087652",
    "setOwner(address)": "13af4035",
    "setTarget(address)": "776d1a01",
    "source()": "67e828bf",
    "strategy()": "a8c62e76",
    "symbol()": "95d89b41",
    "target()": "d4b83992",
    "targetLtv()": "ec921dc1",
    "totalAssets()": "01e1d114",
    "totalSupply()": "18160ddd",
    "totalTargetBalance()": "2bf8eb1d",
    "transfer(address,uint256)": "a9059cbb",
    "transferFrom(address,address,uint256)": "23b872dd",
    "unitroller()": "bad1d3da",
    "upperBoundLtv()": "8469415f",
    "withdraw(uint256,address,address)": "b460af94"
  },
  "id": 22
}