{
  "abi": [
    {
      "inputs": [
        {
          "internalType": "address",
          "name": "_factory",
          "type": "address"
        }
      ],
      "stateMutability": "nonpayable",
      "type": "constructor"
    },
    {
      "anonymous": false,
      "inputs": [
        {
          "indexed": true,
          "internalType": "address",
          "name": "owner",
          "type": "address"
        },
        {
          "indexed": true,
          "internalType": "address",
          "name": "spender",
          "type": "address"
        },
        {
          "indexed": false,
          "internalType": "uint256",
          "name": "amount",
          "type": "uint256"
        }
      ],
      "name": "Approval",
      "type": "event"
    },
    {
      "anonymous": false,
      "inputs": [
        {
          "indexed": true,
          "internalType": "address",
          "name": "caller",
          "type": "address"
        },
        {
          "indexed": true,
          "internalType": "address",
          "name": "owner",
          "type": "address"
        },
        {
          "indexed": false,
          "internalType": "uint256",
          "name": "assets",
          "type": "uint256"
        },
        {
          "indexed": false,
          "internalType": "uint256",
          "name": "shares",
          "type": "uint256"
        }
      ],
      "name": "Deposit",
      "type": "event"
    },
    {
      "anonymous": false,
      "inputs": [
        {
          "indexed": false,
          "internalType": "uint8",
          "name": "version",
          "type": "uint8"
        }
      ],
      "name": "Initialized",
      "type": "event"
    },
    {
      "anonymous": false,
      "inputs": [
        {
          "indexed": true,
          "internalType": "address",
          "name": "from",
          "type": "address"
        },
        {
          "indexed": true,
          "internalType": "address",
          "name": "to",
          "type": "address"
        },
        {
          "indexed": false,
          "internalType": "uint256",
          "name": "amount",
          "type": "uint256"
        }
      ],
      "name": "Transfer",
      "type": "event"
    },
    {
      "anonymous": false,
      "inputs": [
        {
          "indexed": true,
          "internalType": "address",
          "name": "caller",
          "type": "address"
        },
        {
          "indexed": true,
          "internalType": "address",
          "name": "receiver",
          "type": "address"
        },
        {
          "indexed": true,
          "internalType": "address",
          "name": "owner",
          "type": "address"
        },
        {
          "indexed": false,
          "internalType": "uint256",
          "name": "assets",
          "type": "uint256"
        },
        {
          "indexed": false,
          "internalType": "uint256",
          "name": "shares",
          "type": "uint256"
        }
      ],
      "name": "Withdraw",
      "type": "event"
    },
    {
      "inputs": [],
      "name": "DOMAIN_SEPARATOR",
      "outputs": [
        {
          "internalType": "bytes32",
          "name": "",
          "type": "bytes32"
        }
      ],
      "stateMutability": "view",
      "type": "function"
    },
    {
      "inputs": [],
      "name": "activateStrategy",
      "outputs": [],
      "stateMutability": "nonpayable",
      "type": "function"
    },
    {
      "inputs": [],
      "name": "active",
      "outputs": [
        {
          "internalType": "bool",
          "name": "",
          "type": "bool"
        }
      ],
      "stateMutability": "view",
      "type": "function"
    },
    {
      "inputs": [
        {
          "internalType": "address",
          "name": "",
          "type": "address"
        },
        {
          "internalType": "address",
          "name": "",
          "type": "address"
        }
      ],
      "name": "allowance",
      "outputs": [
        {
          "internalType": "uint256",
          "name": "",
          "type": "uint256"
        }
      ],
      "stateMutability": "view",
      "type": "function"
    },
    {
      "inputs": [
        {
          "internalType": "address",
          "name": "spender",
          "type": "address"
        },
        {
          "internalType": "uint256",
          "name": "amount",
          "type": "uint256"
        }
      ],
      "name": "approve",
      "outputs": [
        {
          "internalType": "bool",
          "name": "",
          "type": "bool"
        }
      ],
      "stateMutability": "nonpayable",
      "type": "function"
    },
    {
      "inputs": [],
      "name": "asset",
      "outputs": [
        {
          "internalType": "contract ERC20",
          "name": "",
          "type": "address"
        }
      ],
      "stateMutability": "view",
      "type": "function"
    },
    {
      "inputs": [
        {
          "internalType": "address",
          "name": "",
          "type": "address"
        }
      ],
      "name": "balanceOf",
      "outputs": [
        {
          "internalType": "uint256",
          "name": "",
          "type": "uint256"
        }
      ],
      "stateMutability": "view",
      "type": "function"
    },
    {
      "inputs": [
        {
          "internalType": "uint256",
          "name": "shares",
          "type": "uint256"
        }
      ],
      "name": "convertToAssets",
      "outputs": [
        {
          "internalType": "uint256",
          "name": "",
          "type": "uint256"
        }
      ],
      "stateMutability": "view",
      "type": "function"
    },
    {
      "inputs": [
        {
          "internalType": "uint256",
          "name": "assets",
          "type": "uint256"
        }
      ],
      "name": "convertToShares",
      "outputs": [
        {
          "internalType": "uint256",
          "name": "",
          "type": "uint256"
        }
      ],
      "stateMutability": "view",
      "type": "function"
    },
    {
      "inputs": [],
      "name": "deactivateStrategy",
      "outputs": [],
      "stateMutability": "nonpayable",
      "type": "function"
    },
    {
      "inputs": [],
      "name": "decimals",
      "outputs": [
        {
          "internalType": "uint8",
          "name": "",
          "type": "uint8"
        }
      ],
      "stateMutability": "view",
      "type": "function"
    },
    {
      "inputs": [
        {
          "internalType": "uint256",
          "name": "assets",
          "type": "uint256"
        },
        {
          "internalType": "address",
          "name": "receiver",
          "type": "address"
        }
      ],
      "name": "deposit",
      "outputs": [
        {
          "internalType": "uint256",
          "name": "shares",
          "type": "uint256"
        }
      ],
      "stateMutability": "nonpayable",
      "type": "function"
    },
    {
      "inputs": [],
      "name": "factory",
      "outputs": [
        {
          "internalType": "address",
          "name": "",
          "type": "address"
        }
      ],
      "stateMutability": "view",
      "type": "function"
    },
    {
      "inputs": [],
      "name": "getCapitalAvailability",
      "outputs": [
        {
          "internalType": "uint256",
          "name": "",
          "type": "uint256"
        }
      ],
      "stateMutability": "pure",
      "type": "function"
    },
    {
      "inputs": [],
      "name": "getCapitalUtilization",
      "outputs": [
        {
          "internalType": "uint256",
          "name": "",
          "type": "uint256"
        }
      ],
      "stateMutability": "pure",
      "type": "function"
    },
    {
      "inputs": [],
      "name": "getStrategyApr",
      "outputs": [
        {
          "internalType": "int256",
          "name": "",
          "type": "int256"
        }
      ],
      "stateMutability": "view",
      "type": "function"
    },
    {
      "inputs": [
        {
          "internalType": "address",
          "name": "_asset",
          "type": "address"
        },
        {
          "internalType": "address[]",
          "name": "_modulePath",
          "type": "address[]"
        }
      ],
      "name": "initialize",
      "outputs": [],
      "stateMutability": "nonpayable",
      "type": "function"
    },
    {
      "inputs": [
        {
          "internalType": "address",
          "name": "",
          "type": "address"
        }
      ],
      "name": "maxDeposit",
      "outputs": [
        {
          "internalType": "uint256",
          "name": "",
          "type": "uint256"
        }
      ],
      "stateMutability": "view",
      "type": "function"
    },
    {
      "inputs": [
        {
          "internalType": "address",
          "name": "",
          "type": "address"
        }
      ],
      "name": "maxMint",
      "outputs": [
        {
          "internalType": "uint256",
          "name": "",
          "type": "uint256"
        }
      ],
      "stateMutability": "view",
      "type": "function"
    },
    {
      "inputs": [
        {
          "internalType": "address",
          "name": "owner",
          "type": "address"
        }
      ],
      "name": "maxRedeem",
      "outputs": [
        {
          "internalType": "uint256",
          "name": "",
          "type": "uint256"
        }
      ],
      "stateMutability": "view",
      "type": "function"
    },
    {
      "inputs": [
        {
          "internalType": "address",
          "name": "owner",
          "type": "address"
        }
      ],
      "name": "maxWithdraw",
      "outputs": [
        {
          "internalType": "uint256",
          "name": "",
          "type": "uint256"
        }
      ],
      "stateMutability": "view",
      "type": "function"
    },
    {
      "inputs": [
        {
          "internalType": "uint256",
          "name": "shares",
          "type": "uint256"
        },
        {
          "internalType": "address",
          "name": "receiver",
          "type": "address"
        }
      ],
      "name": "mint",
      "outputs": [
        {
          "internalType": "uint256",
          "name": "assets",
          "type": "uint256"
        }
      ],
      "stateMutability": "nonpayable",
      "type": "function"
    },
    {
      "inputs": [
        {
          "internalType": "uint256",
          "name": "",
          "type": "uint256"
        }
      ],
      "name": "modulePath",
      "outputs": [
        {
          "internalType": "address",
          "name": "",
          "type": "address"
        }
      ],
      "stateMutability": "view",
      "type": "function"
    },
    {
      "inputs": [],
      "name": "name",
      "outputs": [
        {
          "internalType": "string",
          "name": "",
          "type": "string"
        }
      ],
      "stateMutability": "view",
      "type": "function"
    },
    {
      "inputs": [
        {
          "internalType": "address",
          "name": "",
          "type": "address"
        }
      ],
      "name": "nonces",
      "outputs": [
        {
          "internalType": "uint256",
          "name": "",
          "type": "uint256"
        }
      ],
      "stateMutability": "view",
      "type": "function"
    },
    {
      "inputs": [
        {
          "internalType": "address",
          "name": "owner",
          "type": "address"
        },
        {
          "internalType": "address",
          "name": "spender",
          "type": "address"
        },
        {
          "internalType": "uint256",
          "name": "value",
          "type": "uint256"
        },
        {
          "internalType": "uint256",
          "name": "deadline",
          "type": "uint256"
        },
        {
          "internalType": "uint8",
          "name": "v",
          "type": "uint8"
        },
        {
          "internalType": "bytes32",
          "name": "r",
          "type": "bytes32"
        },
        {
          "internalType": "bytes32",
          "name": "s",
          "type": "bytes32"
        }
      ],
      "name": "permit",
      "outputs": [],
      "stateMutability": "nonpayable",
      "type": "function"
    },
    {
      "inputs": [
        {
          "internalType": "uint256",
          "name": "assets",
          "type": "uint256"
        }
      ],
      "name": "previewDeposit",
      "outputs": [
        {
          "internalType": "uint256",
          "name": "",
          "type": "uint256"
        }
      ],
      "stateMutability": "view",
      "type": "function"
    },
    {
      "inputs": [
        {
          "internalType": "uint256",
          "name": "shares",
          "type": "uint256"
        }
      ],
      "name": "previewMint",
      "outputs": [
        {
          "internalType": "uint256",
          "name": "",
          "type": "uint256"
        }
      ],
      "stateMutability": "view",
      "type": "function"
    },
    {
      "inputs": [
        {
          "internalType": "uint256",
          "name": "shares",
          "type": "uint256"
        }
      ],
      "name": "previewRedeem",
      "outputs": [
        {
          "internalType": "uint256",
          "name": "",
          "type": "uint256"
        }
      ],
      "stateMutability": "view",
      "type": "function"
    },
    {
      "inputs": [
        {
          "internalType": "uint256",
          "name": "assets",
          "type": "uint256"
        }
      ],
      "name": "previewWithdraw",
      "outputs": [
        {
          "internalType": "uint256",
          "name": "",
          "type": "uint256"
        }
      ],
      "stateMutability": "view",
      "type": "function"
    },
    {
      "inputs": [
        {
          "internalType": "uint256",
          "name": "shares",
          "type": "uint256"
        },
        {
          "internalType": "address",
          "name": "receiver",
          "type": "address"
        },
        {
          "internalType": "address",
          "name": "owner",
          "type": "address"
        }
      ],
      "name": "redeem",
      "outputs": [
        {
          "internalType": "uint256",
          "name": "assets",
          "type": "uint256"
        }
      ],
      "stateMutability": "nonpayable",
      "type": "function"
    },
    {
      "inputs": [],
      "name": "symbol",
      "outputs": [
        {
          "internalType": "string",
          "name": "",
          "type": "string"
        }
      ],
      "stateMutability": "view",
      "type": "function"
    },
    {
      "inputs": [],
      "name": "totalAssets",
      "outputs": [
        {
          "internalType": "uint256",
          "name": "",
          "type": "uint256"
        }
      ],
      "stateMutability": "view",
      "type": "function"
    },
    {
      "inputs": [],
      "name": "totalSupply",
      "outputs": [
        {
          "internalType": "uint256",
          "name": "",
          "type": "uint256"
        }
      ],
      "stateMutability": "view",
      "type": "function"
    },
    {
      "inputs": [
        {
          "internalType": "address",
          "name": "to",
          "type": "address"
        },
        {
          "internalType": "uint256",
          "name": "amount",
          "type": "uint256"
        }
      ],
      "name": "transfer",
      "outputs": [
        {
          "internalType": "bool",
          "name": "",
          "type": "bool"
        }
      ],
      "stateMutability": "nonpayable",
      "type": "function"
    },
    {
      "inputs": [
        {
          "internalType": "address",
          "name": "from",
          "type": "address"
        },
        {
          "internalType": "address",
          "name": "to",
          "type": "address"
        },
        {
          "internalType": "uint256",
          "name": "amount",
          "type": "uint256"
        }
      ],
      "name": "transferFrom",
      "outputs": [
        {
          "internalType": "bool",
          "name": "",
          "type": "bool"
        }
      ],
      "stateMutability": "nonpayable",
      "type": "function"
    },
    {
      "inputs": [
        {
          "internalType": "uint256",
          "name": "assets",
          "type": "uint256"
        },
        {
          "internalType": "address",
          "name": "receiver",
          "type": "address"
        },
        {
          "internalType": "address",
          "name": "owner",
          "type": "address"
        }
      ],
      "name": "withdraw",
      "outputs": [
        {
          "internalType": "uint256",
          "name": "shares",
          "type": "uint256"
        }
      ],
      "stateMutability": "nonpayable",
      "type": "function"
    }
  ],
  "bytecode": {
    "object": "0x60a06040523480156200001157600080fd5b5060405162002baa38038062002baa833981016040819052620000349162000046565b6001600160a01b031660805262000078565b6000602082840312156200005957600080fd5b81516001600160a01b03811681146200007157600080fd5b9392505050565b608051612b08620000a260003960008181610457015281816107870152610d800152612b086000f3fe608060405234801561001057600080fd5b50600436106102275760003560e01c806370a0823111610130578063bdde8a48116100b8578063d505accf1161007c578063d505accf1461049f578063d905777e146104b2578063dd62ed3e146104db578063e343f97214610449578063ef8b30f71461047957600080fd5b8063bdde8a4814610449578063c45a015514610452578063c63d75b61461034c578063c6e6f59214610479578063ce96cb771461048c57600080fd5b806395d89b41116100ff57806395d89b41146103f5578063a9059cbb146103fd578063b3d7f6b914610410578063b460af9414610423578063ba0876521461043657600080fd5b806370a082311461038f5780637ecebe00146103af578063946d9204146103cf57806394bf804d146103e257600080fd5b806323b872dd116101b357806338d52e0f1161018257806338d52e0f14610339578063402d267d1461034c5780634cdad506146103615780636741c1b9146103745780636e553f651461037c57600080fd5b806323b872dd146102f75780632fb448df1461030a578063313ce567146103125780633644e5151461033157600080fd5b806307a2d13a116101fa57806307a2d13a146102ab578063095ea7b3146102be5780630a28a477146102d157806318160ddd146102e457806321401dd1146102ed57600080fd5b806301e1d1141461022c57806302fb0c5e14610247578063067c69641461026b57806306fdde0314610296575b600080fd5b610234610506565b6040519081526020015b60405180910390f35b600a5461025b90600160a01b900460ff1681565b604051901515815260200161023e565b61027e6102793660046122ee565b61060b565b6040516001600160a01b03909116815260200161023e565b61029e610635565b60405161023e919061235f565b6102346102b93660046122ee565b6106c3565b61025b6102cc366004612387565b6106f0565b6102346102df3660046122ee565b61075c565b61023460045481565b6102f561077c565b005b61025b6103053660046123b3565b61089f565b61023461097f565b60035461031f9060ff1681565b60405160ff909116815260200161023e565b610234610d45565b600a5461027e906001600160a01b031681565b61023461035a3660046123f4565b5060001990565b61023461036f3660046122ee565b610d64565b6102f5610d75565b61023461038a366004612411565b610ded565b61023461039d3660046123f4565b60056020526000908152604090205481565b6102346103bd3660046123f4565b60096020526000908152604090205481565b6102f56103dd366004612441565b610ef9565b6102346103f0366004612411565b6113be565b61029e6114bf565b61025b61040b366004612387565b6114cc565b61023461041e3660046122ee565b611532565b6102346104313660046124c9565b611551565b6102346104443660046124c9565b6116fb565b620f4240610234565b61027e7f000000000000000000000000000000000000000000000000000000000000000081565b6102346104873660046122ee565b611969565b61023461049a3660046123f4565b611989565b6102f56104ad36600461251a565b6119ab565b6102346104c03660046123f4565b6001600160a01b031660009081526005602052604090205490565b6102346104e936600461258b565b600660209081526000928352604080842090915290825290205481565b600080600b60008154811061051d5761051d6125b9565b600091825260209091200154600a546040516370a0823160e01b81523060048201526001600160a01b0392831693509116906370a0823190602401602060405180830381865afa158015610575573d6000803e3d6000fd5b505050506040513d601f19601f8201168201806040525081019061059991906125cf565b816001600160a01b03166301e1d1146040518163ffffffff1660e01b8152600401602060405180830381865afa1580156105d7573d6000803e3d6000fd5b505050506040513d601f19601f820116820180604052508101906105fb91906125cf565b61060591906125fe565b91505090565b600b818154811061061b57600080fd5b6000918252602090912001546001600160a01b0316905081565b6001805461064290612616565b80601f016020809104026020016040519081016040528092919081815260200182805461066e90612616565b80156106bb5780601f10610690576101008083540402835291602001916106bb565b820191906000526020600020905b81548152906001019060200180831161069e57829003601f168201915b505050505081565b60045460009080156106e7576106e26106da610506565b849083611bef565b6106e9565b825b9392505050565b3360008181526006602090815260408083206001600160a01b038716808552925280832085905551919290917f8c5be1e5ebec7d5bd14f71427d1e84f3dd0314c0f7b2291e5b200ac8c7c3b9259061074b9086815260200190565b60405180910390a350600192915050565b60045460009080156106e7576106e281610774610506565b859190611c0e565b336001600160a01b037f000000000000000000000000000000000000000000000000000000000000000016146107e45760405162461bcd60e51b815260206004820152600860248201526721666163746f727960c01b60448201526064015b60405180910390fd5b6000600b6000815481106107fa576107fa6125b9565b6000918252602090912001546001600160a01b031690508063b460af9461081f610506565b6040516001600160e01b031960e084901b1681526004810191909152306024820181905260448201526064016020604051808303816000875af115801561086a573d6000803e3d6000fd5b505050506040513d601f19601f8201168201806040525081019061088e91906125cf565b5050600a805460ff60a01b19169055565b6001600160a01b038316600090815260066020908152604080832033845290915281205460001981146108fb576108d68382612650565b6001600160a01b03861660009081526006602090815260408083203384529091529020555b6001600160a01b03851660009081526005602052604081208054859290610923908490612650565b90915550506001600160a01b0380851660008181526005602052604090819020805487019055519091871690600080516020612a938339815191529061096c9087815260200190565b60405180910390a3506001949350505050565b600080600b8054806020026020016040519081016040528092919081815260200182805480156109d857602002820191906000526020600020905b81546001600160a01b031681526001909101906020018083116109ba575b50505050509050600080620f4240905060005b8351811015610d01576000848281518110610a0857610a086125b9565b602002602001015190506000816001600160a01b0316637f240fbf6040518163ffffffff1660e01b8152600401602060405180830381865afa158015610a52573d6000803e3d6000fd5b505050506040513d601f19601f82011682018060405250810190610a7691906125cf565b9050610aa46040518060400160405280600a81526020016936b7b23ab6329034b21d60b11b81525084611c3c565b610ad06040518060400160405280600b81526020016a36b7b23ab6329020a8291d60a91b815250611c85565b610ad981611ccb565b6000826001600160a01b031663afa293d46040518163ffffffff1660e01b8152600401602060405180830381865afa158015610b19573d6000803e3d6000fd5b505050506040513d601f19601f82011682018060405250810190610b3d9190612667565b6001600160a01b031663bdde8a486040518163ffffffff1660e01b8152600401602060405180830381865afa158015610b7a573d6000803e3d6000fd5b505050506040513d601f19601f82011682018060405250810190610b9e91906125cf565b9050610bdf6040518060400160405280601b81526020017f736f75726365206361706974616c207574696c697a6174696f6e3a000000000081525082611c3c565b610bed8582620f4240611bef565b9450610c25604051806040016040528060148152602001736361706974616c20617661696c6162696c69747960601b81525086611c3c565b6000821315610c4d57610c3c8286620f4240611bef565b610c469087612684565b9550610c75565b610c6885620f4240610c61856000196126c5565b9190611bef565b610c72908761274a565b95505b610cb36040518060400160405280601781526020017f63756d756c61746564207374726174656779204150523a000000000000000000815250611c85565b610cbc86611ccb565b610ceb6040518060400160405280600e81526020016d1e1696969696969696969696969f60911b815250611c85565b5050508080610cf990612789565b9150506109eb565b50610d35604051806040016040528060128152602001712324a720a61029aa2920aa22a3ac9020a82960711b815250611c85565b610d3e82611ccb565b5092915050565b60006007544614610d5d57610d58611d10565b905090565b5060085490565b6000610d6f826106c3565b92915050565b336001600160a01b037f00000000000000000000000000000000000000000000000000000000000000001614610dd85760405162461bcd60e51b815260206004820152600860248201526721666163746f727960c01b60448201526064016107db565b600a805460ff60a01b1916600160a01b179055565b600a54600090600160a01b900460ff16610e195760405162461bcd60e51b81526004016107db906127a2565b610e238383611daa565b90506000600b600081548110610e3b57610e3b6125b9565b600091825260209091200154604051636e553f6560e01b8152600481018690523060248201526001600160a01b0390911691508190636e553f65906044016020604051808303816000875af1158015610e98573d6000803e3d6000fd5b505050506040513d601f19601f82011682018060405250810190610ebc91906125cf565b5060408051858152602081018490526001600160a01b038516913391600080516020612ab383398151915291015b60405180910390a35092915050565b600054610100900460ff1615808015610f195750600054600160ff909116105b80610f335750303b158015610f33575060005460ff166001145b610f965760405162461bcd60e51b815260206004820152602e60248201527f496e697469616c697a61626c653a20636f6e747261637420697320616c72656160448201526d191e481a5b9a5d1a585b1a5e995960921b60648201526084016107db565b6000805460ff191660011790558015610fb9576000805461ff0019166101001790555b6000846001600160a01b03166395d89b416040518163ffffffff1660e01b8152600401600060405180830381865afa158015610ff9573d6000803e3d6000fd5b505050506040513d6000823e601f3d908101601f1916820160405261102191908101906127d9565b90506000816040516020016110369190612886565b604051602081830303815290604052905060008260405160200161105a91906128b8565b60408051601f198184030181529190529050611078600b8787612202565b5060005b858110156113125761108f600187612650565b811015611156578686828181106110a8576110a86125b9565b90506020020160208101906110bd91906123f4565b6001600160a01b031663776d1a0188886110d88560016125fe565b8181106110e7576110e76125b9565b90506020020160208101906110fc91906123f4565b6040516001600160e01b031960e084901b1681526001600160a01b039091166004820152602401600060405180830381600087803b15801561113d57600080fd5b505af1158015611151573d6000803e3d6000fd5b505050505b600087878381811061116a5761116a6125b9565b905060200201602081019061117f91906123f4565b6001600160a01b03166395d89b416040518163ffffffff1660e01b8152600401600060405180830381865afa1580156111bc573d6000803e3d6000fd5b505050506040513d6000823e601f3d908101601f191682016040526111e491908101906127d9565b905060008888848181106111fa576111fa6125b9565b905060200201602081019061120f91906123f4565b6001600160a01b0316634ba200506040518163ffffffff1660e01b8152600401602060405180830381865afa15801561124c573d6000803e3d6000fd5b505050506040513d601f19601f820116820180604052508101906112709190612667565b6001600160a01b03166395d89b416040518163ffffffff1660e01b8152600401600060405180830381865afa1580156112ad573d6000803e3d6000fd5b505050506040513d6000823e601f3d908101601f191682016040526112d591908101906127d9565b90508482826040516020016112ec939291906128e9565b60405160208183030381529060405294505050808061130a90612789565b91505061107c565b5061131e878383611e52565b61135c86866000818110611334576113346125b9565b905060200201602081019061134991906123f4565b6001600160a01b03891690600019611f10565b5050600a805460ff60a01b1916600160a01b1790555080156113b8576000805461ff0019169055604051600181527f7f26b83ff96e1f2b6a682f133852f6798a09c465da95921460cefb38474024989060200160405180910390a15b50505050565b600a54600090600160a01b900460ff166113ea5760405162461bcd60e51b81526004016107db906127a2565b6113f48383611f87565b90506000600b60008154811061140c5761140c6125b9565b600091825260209091200154604051636e553f6560e01b8152600481018490523060248201526001600160a01b0390911691508190636e553f65906044016020604051808303816000875af1158015611469573d6000803e3d6000fd5b505050506040513d601f19601f8201168201806040525081019061148d91906125cf565b5060408051838152602081018690526001600160a01b038516913391600080516020612ab38339815191529101610eea565b6002805461064290612616565b336000908152600560205260408120805483919083906114ed908490612650565b90915550506001600160a01b03831660008181526005602052604090819020805485019055513390600080516020612a938339815191529061074b9086815260200190565b60045460009080156106e7576106e2611549610506565b849083611c0e565b600a54600090600160a01b900460ff1661157d5760405162461bcd60e51b81526004016107db906127a2565b6115868461075c565b9050336001600160a01b038316146115f6576001600160a01b038216600090815260066020908152604080832033845290915290205460001981146115f4576115cf8282612650565b6001600160a01b03841660009081526006602090815260408083203384529091529020555b505b6000600b60008154811061160c5761160c6125b9565b6000918252602090912001546001600160a01b0316905061162d8383611fe8565b604051632d182be560e21b8152600481018690526001600160a01b03858116602483015230604483015282169063b460af94906064016020604051808303816000875af1158015611682573d6000803e3d6000fd5b505050506040513d601f19601f820116820180604052508101906116a691906125cf565b5060408051868152602081018490526001600160a01b03808616929087169133917ffbde797d201c681b91056529119e0b02407c7bb96a4a2c75c01fc9667232c8db91015b60405180910390a4509392505050565b600a54600090600160a01b900460ff166117275760405162461bcd60e51b81526004016107db906127a2565b6117536040518060400160405280600a81526020016936b9b39039b2b73232b960b11b81525033612052565b61177a6040518060400160405280600581526020016437bbb732b960d91b81525083612052565b336001600160a01b038316146117e8576001600160a01b038216600090815260066020908152604080832033845290915290205460001981146117e6576117c18582612650565b6001600160a01b03841660009081526006602090815260408083203384529091529020555b505b6117f184610d64565b9050806000036118315760405162461bcd60e51b815260206004820152600b60248201526a5a45524f5f41535345545360a81b60448201526064016107db565b61187060405180604001604052806015815260200174707265766965772072656465656d2073686172657360581b81525061186b86610d64565b611c3c565b6000600b600081548110611886576118866125b9565b6000918252602090912001546001600160a01b031690506118a78386611fe8565b604051632d182be560e21b8152600481018390526001600160a01b03858116602483015230604483015282169063b460af94906064016020604051808303816000875af11580156118fc573d6000803e3d6000fd5b505050506040513d601f19601f8201168201806040525081019061192091906125cf565b5060408051838152602081018790526001600160a01b03808616929087169133917ffbde797d201c681b91056529119e0b02407c7bb96a4a2c75c01fc9667232c8db91016116eb565b60045460009080156106e7576106e281611981610506565b859190611bef565b6001600160a01b038116600090815260056020526040812054610d6f906106c3565b428410156119fb5760405162461bcd60e51b815260206004820152601760248201527f5045524d49545f444541444c494e455f4558504952454400000000000000000060448201526064016107db565b60006001611a07610d45565b6001600160a01b038a811660008181526009602090815260409182902080546001810190915582517f6e71edae12b1b97f4d1f60370fef10105fa2faae0126114a169c64845d6126c98184015280840194909452938d166060840152608083018c905260a083019390935260c08083018b90528151808403909101815260e08301909152805192019190912061190160f01b6101008301526101028201929092526101228101919091526101420160408051601f198184030181528282528051602091820120600084529083018083525260ff871690820152606081018590526080810184905260a0016020604051602081039080840390855afa158015611b13573d6000803e3d6000fd5b5050604051601f1901519150506001600160a01b03811615801590611b495750876001600160a01b0316816001600160a01b0316145b611b865760405162461bcd60e51b815260206004820152600e60248201526d24a72b20a624a22fa9a4a3a722a960911b60448201526064016107db565b6001600160a01b0390811660009081526006602090815260408083208a8516808552908352928190208990555188815291928a16917f8c5be1e5ebec7d5bd14f71427d1e84f3dd0314c0f7b2291e5b200ac8c7c3b925910160405180910390a350505050505050565b828202811515841585830485141716611c0757600080fd5b0492915050565b828202811515841585830485141716611c2657600080fd5b6001826001830304018115150290509392505050565b611c818282604051602401611c52929190612943565b60408051601f198184030181529190526020810180516001600160e01b03166309710a9d60e41b179052612093565b5050565b611cc881604051602401611c99919061235f565b60408051601f198184030181529190526020810180516001600160e01b031663104c13eb60e21b179052612093565b50565b611cc881604051602401611ce191815260200190565b60408051601f198184030181529190526020810180516001600160e01b0316634e0c1d1d60e01b179052612093565b60007f8b73c3c69bb8fe3d512ecc4cf759cc79239f7b179b0ffacaa9a75d522b39400f6001604051611d429190612965565b6040805191829003822060208301939093528101919091527fc89efdaa54c0f20c7adf612882df0950f5a951637e0307cdcb4c672f298b8bc660608201524660808201523060a082015260c00160405160208183030381529060405280519060200120905090565b6000611db583611969565b905080600003611df55760405162461bcd60e51b815260206004820152600b60248201526a5a45524f5f53484152455360a81b60448201526064016107db565b600a54611e0d906001600160a01b03163330866120b4565b611e17828261213e565b60408051848152602081018390526001600160a01b038416913391600080516020612ab383398151915291015b60405180910390a392915050565b600054610100900460ff16611e795760405162461bcd60e51b81526004016107db90612a00565b6000836001600160a01b031663313ce5676040518163ffffffff1660e01b8152600401602060405180830381865afa158015611eb9573d6000803e3d6000fd5b505050506040513d601f19601f82011682018060405250810190611edd9190612a4b565b9050611eea838383612190565b5050600a80546001600160a01b0319166001600160a01b03939093169290921790915550565b600060405163095ea7b360e01b8152836004820152826024820152602060006044836000895af13d15601f3d11600160005114161716915050806113b85760405162461bcd60e51b815260206004820152600e60248201526d1054141493d59157d1905253115160921b60448201526064016107db565b6000611f9283611532565b600a54909150611fad906001600160a01b03163330846120b4565b611fb7828461213e565b60408051828152602081018590526001600160a01b038416913391600080516020612ab38339815191529101611e44565b6001600160a01b03821660009081526005602052604081208054839290612010908490612650565b90915550506004805482900390556040518181526000906001600160a01b03841690600080516020612a93833981519152906020015b60405180910390a35050565b611c818282604051602401612068929190612a68565b60408051601f198184030181529190526020810180516001600160e01b031663319af33360e01b1790525b80516a636f6e736f6c652e6c6f67602083016000808483855afa5050505050565b60006040516323b872dd60e01b81528460048201528360248201528260448201526020600060648360008a5af13d15601f3d11600160005114161716915050806121375760405162461bcd60e51b81526020600482015260146024820152731514905394d1915497d19493d357d1905253115160621b60448201526064016107db565b5050505050565b806004600082825461215091906125fe565b90915550506001600160a01b038216600081815260056020908152604080832080548601905551848152600080516020612a938339815191529101612046565b600054610100900460ff166121b75760405162461bcd60e51b81526004016107db90612a00565b82516121ca906001906020860190612265565b5081516121de906002906020850190612265565b506003805460ff191660ff8316179055466007556121fa611d10565b600855505050565b828054828255906000526020600020908101928215612255579160200282015b828111156122555781546001600160a01b0319166001600160a01b03843516178255602090920191600190910190612222565b506122619291506122d9565b5090565b82805461227190612616565b90600052602060002090601f0160209004810192826122935760008555612255565b82601f106122ac57805160ff1916838001178555612255565b82800160010185558215612255579182015b828111156122555782518255916020019190600101906122be565b5b8082111561226157600081556001016122da565b60006020828403121561230057600080fd5b5035919050565b60005b8381101561232257818101518382015260200161230a565b838111156113b85750506000910152565b6000815180845261234b816020860160208601612307565b601f01601f19169290920160200192915050565b6020815260006106e96020830184612333565b6001600160a01b0381168114611cc857600080fd5b6000806040838503121561239a57600080fd5b82356123a581612372565b946020939093013593505050565b6000806000606084860312156123c857600080fd5b83356123d381612372565b925060208401356123e381612372565b929592945050506040919091013590565b60006020828403121561240657600080fd5b81356106e981612372565b6000806040838503121561242457600080fd5b82359150602083013561243681612372565b809150509250929050565b60008060006040848603121561245657600080fd5b833561246181612372565b9250602084013567ffffffffffffffff8082111561247e57600080fd5b818601915086601f83011261249257600080fd5b8135818111156124a157600080fd5b8760208260051b85010111156124b657600080fd5b6020830194508093505050509250925092565b6000806000606084860312156124de57600080fd5b8335925060208401356124f081612372565b9150604084013561250081612372565b809150509250925092565b60ff81168114611cc857600080fd5b600080600080600080600060e0888a03121561253557600080fd5b873561254081612372565b9650602088013561255081612372565b95506040880135945060608801359350608088013561256e8161250b565b9699959850939692959460a0840135945060c09093013592915050565b6000806040838503121561259e57600080fd5b82356125a981612372565b9150602083013561243681612372565b634e487b7160e01b600052603260045260246000fd5b6000602082840312156125e157600080fd5b5051919050565b634e487b7160e01b600052601160045260246000fd5b60008219821115612611576126116125e8565b500190565b600181811c9082168061262a57607f821691505b60208210810361264a57634e487b7160e01b600052602260045260246000fd5b50919050565b600082821015612662576126626125e8565b500390565b60006020828403121561267957600080fd5b81516106e981612372565b600080821280156001600160ff1b03849003851316156126a6576126a66125e8565b600160ff1b83900384128116156126bf576126bf6125e8565b50500190565b60006001600160ff1b03818413828413808216868404861116156126eb576126eb6125e8565b600160ff1b600087128281168783058912161561270a5761270a6125e8565b60008712925087820587128484161615612726576127266125e8565b8785058712818416161561273c5761273c6125e8565b505050929093029392505050565b60008083128015600160ff1b850184121615612768576127686125e8565b6001600160ff1b0384018313811615612783576127836125e8565b50500390565b60006001820161279b5761279b6125e8565b5060010190565b6020808252600790820152662161637469766560c81b604082015260600190565b634e487b7160e01b600052604160045260246000fd5b6000602082840312156127eb57600080fd5b815167ffffffffffffffff8082111561280357600080fd5b818401915084601f83011261281757600080fd5b815181811115612829576128296127c3565b604051601f8201601f19908116603f01168101908382118183101715612851576128516127c3565b8160405282815287602084870101111561286a57600080fd5b61287b836020830160208801612307565b979650505050505050565b69029ba3930ba32b3bc9d160b51b8152600082516128ab81600a850160208701612307565b91909101600a0192915050565b6853747261746567792d60b81b8152600082516128dc816009850160208701612307565b9190910160090192915050565b600084516128fb818460208901612307565b8083019050602d60f81b808252855161291b816001850160208a01612307565b60019201918201528351612936816002840160208801612307565b0160020195945050505050565b6040815260006129566040830185612333565b90508260208301529392505050565b600080835481600182811c91508083168061298157607f831692505b602080841082036129a057634e487b7160e01b86526022600452602486fd5b8180156129b457600181146129c5576129f2565b60ff198616895284890196506129f2565b60008a81526020902060005b868110156129ea5781548b8201529085019083016129d1565b505084890196505b509498975050505050505050565b6020808252602b908201527f496e697469616c697a61626c653a20636f6e7472616374206973206e6f74206960408201526a6e697469616c697a696e6760a81b606082015260800190565b600060208284031215612a5d57600080fd5b81516106e98161250b565b604081526000612a7b6040830185612333565b905060018060a01b0383166020830152939250505056feddf252ad1be2c89b69c2b068fc378daa952ba7f163c4a11628f55a4df523b3efdcbc1c05240f31ff3ad067ef1ee35ce4997762752e3a095284754544f4c709d7a26469706673582212203079d105557a690cee83e6e52a724be0007e6b43f7ceeff1b3c7426bfb1e34b664736f6c634300080d0033",
    "linkReferences": {}
  },
  "methodIdentifiers": {
    "DOMAIN_SEPARATOR()": "3644e515",
    "activateStrategy()": "6741c1b9",
    "active()": "02fb0c5e",
    "allowance(address,address)": "dd62ed3e",
    "approve(address,uint256)": "095ea7b3",
    "asset()": "38d52e0f",
    "balanceOf(address)": "70a08231",
    "convertToAssets(uint256)": "07a2d13a",
    "convertToShares(uint256)": "c6e6f592",
    "deactivateStrategy()": "21401dd1",
    "decimals()": "313ce567",
    "deposit(uint256,address)": "6e553f65",
    "factory()": "c45a0155",
    "getCapitalAvailability()": "e343f972",
    "getCapitalUtilization()": "bdde8a48",
    "getStrategyApr()": "2fb448df",
    "initialize(address,address[])": "946d9204",
    "maxDeposit(address)": "402d267d",
    "maxMint(address)": "c63d75b6",
    "maxRedeem(address)": "d905777e",
    "maxWithdraw(address)": "ce96cb77",
    "mint(uint256,address)": "94bf804d",
    "modulePath(uint256)": "067c6964",
    "name()": "06fdde03",
    "nonces(address)": "7ecebe00",
    "permit(address,address,uint256,uint256,uint8,bytes32,bytes32)": "d505accf",
    "previewDeposit(uint256)": "ef8b30f7",
    "previewMint(uint256)": "b3d7f6b9",
    "previewRedeem(uint256)": "4cdad506",
    "previewWithdraw(uint256)": "0a28a477",
    "redeem(uint256,address,address)": "ba087652",
    "symbol()": "95d89b41",
    "totalAssets()": "01e1d114",
    "totalSupply()": "18160ddd",
    "transfer(address,uint256)": "a9059cbb",
    "transferFrom(address,address,uint256)": "23b872dd",
    "withdraw(uint256,address,address)": "b460af94"
  },
  "id": 27
}