{
  "abi": [
    {
      "inputs": [
        {
          "internalType": "address",
          "name": "owner",
          "type": "address"
        }
      ],
      "stateMutability": "nonpayable",
      "type": "constructor"
    },
    {
      "anonymous": false,
      "inputs": [
        {
          "indexed": true,
          "internalType": "address",
          "name": "caller",
          "type": "address"
        },
        {
          "indexed": false,
          "internalType": "address",
          "name": "implementation",
          "type": "address"
        },
        {
          "indexed": false,
          "internalType": "uint256",
          "name": "id",
          "type": "uint256"
        }
      ],
      "name": "AddImplementation",
      "type": "event"
    },
    {
      "anonymous": false,
      "inputs": [
        {
          "indexed": true,
          "internalType": "address",
          "name": "caller",
          "type": "address"
        },
        {
          "indexed": true,
          "internalType": "address",
          "name": "asset",
          "type": "address"
        },
        {
          "indexed": false,
          "internalType": "address",
          "name": "strategy",
          "type": "address"
        },
        {
          "indexed": false,
          "internalType": "string",
          "name": "strategyName",
          "type": "string"
        }
      ],
      "name": "CreateStrategy",
      "type": "event"
    },
    {
      "anonymous": false,
      "inputs": [
        {
          "indexed": true,
          "internalType": "address",
          "name": "caller",
          "type": "address"
        },
        {
          "indexed": false,
          "internalType": "address",
          "name": "implementation",
          "type": "address"
        },
        {
          "indexed": false,
          "internalType": "uint256",
          "name": "id",
          "type": "uint256"
        }
      ],
      "name": "DeactivateImplementation",
      "type": "event"
    },
    {
      "anonymous": false,
      "inputs": [
        {
          "indexed": true,
          "internalType": "address",
          "name": "user",
          "type": "address"
        },
        {
          "indexed": true,
          "internalType": "address",
          "name": "newOwner",
          "type": "address"
        }
      ],
      "name": "OwnerUpdated",
      "type": "event"
    },
    {
      "anonymous": false,
      "inputs": [
        {
          "indexed": false,
          "internalType": "bool",
          "name": "set",
          "type": "bool"
        }
      ],
      "name": "SetAllowPublicImplementations",
      "type": "event"
    },
    {
      "anonymous": false,
      "inputs": [
        {
          "indexed": false,
          "internalType": "bool",
          "name": "set",
          "type": "bool"
        }
      ],
      "name": "SetAllowPublicStrategies",
      "type": "event"
    },
    {
      "inputs": [
        {
          "internalType": "address",
          "name": "_implementation",
          "type": "address"
        },
        {
          "internalType": "bool",
          "name": "_rebalancing",
          "type": "bool"
        },
        {
          "internalType": "bool",
          "name": "_morphism",
          "type": "bool"
        }
      ],
      "name": "addImplementation",
      "outputs": [
        {
          "internalType": "uint256",
          "name": "index",
          "type": "uint256"
        }
      ],
      "stateMutability": "nonpayable",
      "type": "function"
    },
    {
      "inputs": [
        {
          "internalType": "uint256",
          "name": "",
          "type": "uint256"
        }
      ],
      "name": "allModuleImplementations",
      "outputs": [
        {
          "internalType": "address",
          "name": "",
          "type": "address"
        }
      ],
      "stateMutability": "view",
      "type": "function"
    },
    {
      "inputs": [
        {
          "internalType": "uint256",
          "name": "",
          "type": "uint256"
        }
      ],
      "name": "allModules",
      "outputs": [
        {
          "internalType": "address",
          "name": "",
          "type": "address"
        }
      ],
      "stateMutability": "view",
      "type": "function"
    },
    {
      "inputs": [
        {
          "internalType": "uint256",
          "name": "",
          "type": "uint256"
        }
      ],
      "name": "allStrategies",
      "outputs": [
        {
          "internalType": "address",
          "name": "",
          "type": "address"
        }
      ],
      "stateMutability": "view",
      "type": "function"
    },
    {
      "inputs": [],
      "name": "allowPublicImplementations",
      "outputs": [
        {
          "internalType": "bool",
          "name": "",
          "type": "bool"
        }
      ],
      "stateMutability": "view",
      "type": "function"
    },
    {
      "inputs": [],
      "name": "allowPublicStrategies",
      "outputs": [
        {
          "internalType": "bool",
          "name": "",
          "type": "bool"
        }
      ],
      "stateMutability": "view",
      "type": "function"
    },
    {
      "inputs": [
        {
          "internalType": "address[]",
          "name": "_path",
          "type": "address[]"
        }
      ],
      "name": "createStrategy",
      "outputs": [
        {
          "internalType": "address",
          "name": "strategy",
          "type": "address"
        }
      ],
      "stateMutability": "nonpayable",
      "type": "function"
    },
    {
      "inputs": [
        {
          "internalType": "address",
          "name": "implementation",
          "type": "address"
        }
      ],
      "name": "deactivateImplementaion",
      "outputs": [],
      "stateMutability": "nonpayable",
      "type": "function"
    },
    {
      "inputs": [],
      "name": "getAllStrategies",
      "outputs": [
        {
          "internalType": "address[]",
          "name": "",
          "type": "address[]"
        }
      ],
      "stateMutability": "view",
      "type": "function"
    },
    {
      "inputs": [
        {
          "internalType": "address",
          "name": "",
          "type": "address"
        },
        {
          "internalType": "address",
          "name": "",
          "type": "address"
        }
      ],
      "name": "isPegged",
      "outputs": [
        {
          "internalType": "bool",
          "name": "",
          "type": "bool"
        }
      ],
      "stateMutability": "view",
      "type": "function"
    },
    {
      "inputs": [],
      "name": "owner",
      "outputs": [
        {
          "internalType": "address",
          "name": "",
          "type": "address"
        }
      ],
      "stateMutability": "view",
      "type": "function"
    },
    {
      "inputs": [
        {
          "internalType": "bool",
          "name": "set",
          "type": "bool"
        }
      ],
      "name": "setAllowPublicImplementations",
      "outputs": [],
      "stateMutability": "nonpayable",
      "type": "function"
    },
    {
      "inputs": [
        {
          "internalType": "bool",
          "name": "set",
          "type": "bool"
        }
      ],
      "name": "setAllowPublicStrategies",
      "outputs": [],
      "stateMutability": "nonpayable",
      "type": "function"
    },
    {
      "inputs": [
        {
          "internalType": "address",
          "name": "newOwner",
          "type": "address"
        }
      ],
      "name": "setOwner",
      "outputs": [],
      "stateMutability": "nonpayable",
      "type": "function"
    },
    {
      "inputs": [
        {
          "internalType": "address",
          "name": "asset1",
          "type": "address"
        },
        {
          "internalType": "address",
          "name": "asset2",
          "type": "address"
        },
        {
          "internalType": "bool",
          "name": "pegged",
          "type": "bool"
        }
      ],
      "name": "setPeggedAssets",
      "outputs": [],
      "stateMutability": "nonpayable",
      "type": "function"
    },
    {
      "inputs": [
        {
          "internalType": "address",
          "name": "_implementation",
          "type": "address"
        }
      ],
      "name": "setStrategyImplementation",
      "outputs": [],
      "stateMutability": "nonpayable",
      "type": "function"
    },
    {
      "inputs": [],
      "name": "strategyImplementation",
      "outputs": [
        {
          "internalType": "address",
          "name": "",
          "type": "address"
        }
      ],
      "stateMutability": "view",
      "type": "function"
    }
  ],
  "bytecode": {
    "object": "0x608060405234801561001057600080fd5b5060405161156c38038061156c83398101604081905261002f9161007e565b600080546001600160a01b0319166001600160a01b03831690811782556040518392907f8292fce18fa69edf4db7b94ea2e58241df0ae57f97e0a6c9b29067028bf92d76908290a350506100ae565b60006020828403121561009057600080fd5b81516001600160a01b03811681146100a757600080fd5b9392505050565b6114af806100bd6000396000f3fe608060405234801561001057600080fd5b506004361061010b5760003560e01c8063a2c4ad5b116100a2578063d2f05a4211610071578063d2f05a4214610247578063d8d82b431461025a578063d9f828b81461026d578063e1e3dfeb14610280578063f518b0f71461029357600080fd5b8063a2c4ad5b146101de578063ac66016d1461020c578063bd922b1c1461021f578063c3b288641461023257600080fd5b80635b8b950b116100de5780635b8b950b1461016d5780636fd3e071146101805780638da5cb5b146101a15780639f2ebdf4146101cc57600080fd5b8063065bb47c1461011057806313af4035146101325780632c52746c146101475780632e2800431461015a575b600080fd5b60055461011d9060ff1681565b60405190151581526020015b60405180910390f35b610145610140366004610fda565b6102a6565b005b610145610155366004610fda565b610324565b61014561016836600461100e565b610429565b61014561017b36600461100e565b6104a7565b61019361018e366004611029565b610512565b604051908152602001610129565b6000546101b4906001600160a01b031681565b6040516001600160a01b039091168152602001610129565b60055461011d90610100900460ff1681565b61011d6101ec36600461106e565b600960209081526000928352604080842090915290825290205460ff1681565b61014561021a366004610fda565b610724565b6001546101b4906001600160a01b031681565b61023a610770565b60405161012991906110eb565b6101b46102553660046110fe565b6107d2565b6101b4610268366004611173565b610cc1565b61014561027b36600461118c565b610ceb565b6101b461028e366004611173565b610d69565b6101b46102a1366004611173565b610d79565b6000546001600160a01b031633146102d95760405162461bcd60e51b81526004016102d0906111bc565b60405180910390fd5b600080546001600160a01b0319166001600160a01b0383169081178255604051909133917f8292fce18fa69edf4db7b94ea2e58241df0ae57f97e0a6c9b29067028bf92d769190a350565b6000816001600160a01b0316638da5cb5b6040518163ffffffff1660e01b8152600401602060405180830381865afa158015610364573d6000803e3d6000fd5b505050506040513d601f19601f8201168201806040525081019061038891906111e2565b60055490915060ff16156103c8576000546001600160a01b038281169116146103c35760405162461bcd60e51b81526004016102d0906111ff565b610405565b336001600160a01b03821614806103e957506000546001600160a01b031633145b6104055760405162461bcd60e51b81526004016102d0906111ff565b506001600160a01b03166000908152600860205260409020805462ff000019169055565b6000546001600160a01b031633146104535760405162461bcd60e51b81526004016102d0906111bc565b600580548215156101000261ff00199091161790556040517f9c54a1c8a99d5dfa19f0bae6632e2a1eaa7418a125c4b02fe62d6a0befdac4d29061049c90831515815260200190565b60405180910390a150565b6000546001600160a01b031633146104d15760405162461bcd60e51b81526004016102d0906111bc565b6005805460ff19168215159081179091556040519081527ffe7c95ff88fb9fc03a1bdce97a270c8abcfbe83ed7a50c1030955449412597fa9060200161049c565b600080546001600160a01b031633148061052e575060055460ff165b61054a5760405162461bcd60e51b81526004016102d0906111ff565b60408051608081018252841515815283151560208083019182526001838501818152600354606086019081526001600160a01b038b16600090815260089094529590922084518154945193511515620100000262ff0000199415156101000261ff0019921580159390931661ffff19909716969096179590951793909316939093178355935191909301559061068957846001600160a01b03166316d1d9166040518163ffffffff1660e01b8152600401602060405180830381865afa158015610618573d6000803e3d6000fd5b505050506040513d601f19601f8201168201806040525081019061063c9190611224565b6001600160801b03166000036106895760405162461bcd60e51b8152602060048201526012602482015271085c9958985b185b98d9525b9d195c9d985b60721b60448201526064016102d0565b600380546001810182556000919091527fc2575a0e9e593c00f959f8c92f12db2869c3395a3b0502d05e2516446f71f85b0180546001600160a01b0319166001600160a01b038716908117909155606082015160408051928352602083019190915233917f21cea0d776f24910c3a062569ecfb33a1d4c5eefccfd972751073abe309ff775910160405180910390a260600151949350505050565b6000546001600160a01b0316331461074e5760405162461bcd60e51b81526004016102d0906111bc565b600180546001600160a01b0319166001600160a01b0392909216919091179055565b606060048054806020026020016040519081016040528092919081815260200182805480156107c857602002820191906000526020600020905b81546001600160a01b031681526001909101906020018083116107aa575b5050505050905090565b600080546001600160a01b03163314806107f35750600554610100900460ff165b61080f5760405162461bcd60e51b81526004016102d0906111ff565b6001546001600160a01b03166108675760405162461bcd60e51b815260206004820152601760248201527f217374726174656779496d706c656d656e746174696f6e00000000000000000060448201526064016102d0565b6000838360405160200161087c92919061124d565b60408051601f19818403018152919052805160209091012060015490915060009061090a906001600160a01b03168330604051733d602d80600a3d3981f3363d3d373d3d3d363d7360601b8152606093841b60148201526f5af43d82803e903d91602b57fd5bf3ff60801b6028820152921b6038830152604c8201526037808220606c830152605591012090565b6001600160a01b03811660009081526007602052604090205490915060ff161561096a5760405162461bcd60e51b8152602060048201526011602482015270085cdd1c985d1959de51195c1b1bde5959607a1b60448201526064016102d0565b600154610980906001600160a01b031683610d89565b9250600061098f6002866112b1565b67ffffffffffffffff8111156109a7576109a76112d3565b6040519080825280602002602001820160405280156109d0578160200160208202803683370190505b5090508360015b6109e26001886112e9565b811015610aec5760008888838181106109fd576109fd611300565b9050602002016020810190610a129190610fda565b905060008989610a236001866112e9565b818110610a3257610a32611300565b9050602002016020810190610a479190610fda565b905060008a8a610a58866001611316565b818110610a6757610a67611300565b9050602002016020810190610a7c9190610fda565b9050610a8a83838388610e2f565b945084866002610a9b6001886112e9565b610aa591906112b1565b81518110610ab557610ab5611300565b60200260200101906001600160a01b031690816001600160a01b031681525050505050600281610ae59190611316565b90506109d7565b50846001600160a01b031663946d920488886000818110610b0f57610b0f611300565b9050602002016020810190610b249190610fda565b846040518363ffffffff1660e01b8152600401610b4292919061132e565b600060405180830381600087803b158015610b5c57600080fd5b505af1158015610b70573d6000803e3d6000fd5b505050506000856001600160a01b03166306fdde036040518163ffffffff1660e01b8152600401600060405180830381865afa158015610bb4573d6000803e3d6000fd5b505050506040513d6000823e601f3d908101601f19168201604052610bdc919081019061138a565b6001600160a01b0387166000818152600760205260408120805460ff1916600190811790915560048054918201815582527f8a35acfbc15ff81a39ae7d344fd709f28e8600b4aa8c65c6b64bfe7fe36bd19b0180546001600160a01b0319169092179091559091508890889081610c5557610c55611300565b9050602002016020810190610c6a9190610fda565b6001600160a01b0316336001600160a01b03167f6c198fad816d00b5bcb3783af8bfcf2003b60c4f43787eb0156a4904e40715998884604051610cae929190611437565b60405180910390a3505050505092915050565b60028181548110610cd157600080fd5b6000918252602090912001546001600160a01b0316905081565b6000546001600160a01b03163314610d155760405162461bcd60e51b81526004016102d0906111bc565b6001600160a01b039283166000818152600960208181526040808420969097168352948552858220805460ff1990811695151595861790915590855285822092825291909352929091208054909216179055565b60048181548110610cd157600080fd5b60038181548110610cd157600080fd5b6000604051733d602d80600a3d3981f3363d3d373d3d3d363d7360601b81528360601b60148201526e5af43d82803e903d91602b57fd5bf360881b6028820152826037826000f59150506001600160a01b038116610e295760405162461bcd60e51b815260206004820152601760248201527f455243313136373a2063726561746532206661696c656400000000000000000060448201526064016102d0565b92915050565b6000610e3a85610f25565b90506001600160a01b038116610e7c5760405162461bcd60e51b8152602060048201526007602482015266216d6f64756c6560c81b60448201526064016102d0565b604051637c643b2f60e11b81526001600160a01b03858116600483015284811660248301528381166044830152868116606483015282169063f8c8765e90608401600060405180830381600087803b158015610ed757600080fd5b505af1158015610eeb573d6000803e3d6000fd5b5050506001600160a01b0380831660009081526006602052604090208054919097166001600160a01b031990911617909555949350505050565b6000604051733d602d80600a3d3981f3363d3d373d3d3d363d7360601b81528260601b60148201526e5af43d82803e903d91602b57fd5bf360881b60288201526037816000f09150506001600160a01b038116610fbd5760405162461bcd60e51b8152602060048201526016602482015275115490cc4c4d8dce8818dc99585d194819985a5b195960521b60448201526064016102d0565b919050565b6001600160a01b0381168114610fd757600080fd5b50565b600060208284031215610fec57600080fd5b8135610ff781610fc2565b9392505050565b80358015158114610fbd57600080fd5b60006020828403121561102057600080fd5b610ff782610ffe565b60008060006060848603121561103e57600080fd5b833561104981610fc2565b925061105760208501610ffe565b915061106560408501610ffe565b90509250925092565b6000806040838503121561108157600080fd5b823561108c81610fc2565b9150602083013561109c81610fc2565b809150509250929050565b600081518084526020808501945080840160005b838110156110e05781516001600160a01b0316875295820195908201906001016110bb565b509495945050505050565b602081526000610ff760208301846110a7565b6000806020838503121561111157600080fd5b823567ffffffffffffffff8082111561112957600080fd5b818501915085601f83011261113d57600080fd5b81358181111561114c57600080fd5b8660208260051b850101111561116157600080fd5b60209290920196919550909350505050565b60006020828403121561118557600080fd5b5035919050565b6000806000606084860312156111a157600080fd5b83356111ac81610fc2565b9250602084013561105781610fc2565b6020808252600c908201526b15539055551213d49256915160a21b604082015260600190565b6000602082840312156111f457600080fd5b8151610ff781610fc2565b6020808252600b908201526a08585d5d1a1bdc9a5e995960aa1b604082015260600190565b60006020828403121561123657600080fd5b81516001600160801b0381168114610ff757600080fd5b60208082528181018390526000908460408401835b8681101561129057823561127581610fc2565b6001600160a01b031682529183019190830190600101611262565b509695505050505050565b634e487b7160e01b600052601160045260246000fd5b6000826112ce57634e487b7160e01b600052601260045260246000fd5b500490565b634e487b7160e01b600052604160045260246000fd5b6000828210156112fb576112fb61129b565b500390565b634e487b7160e01b600052603260045260246000fd5b600082198211156113295761132961129b565b500190565b6001600160a01b0383168152604060208201819052600090611352908301846110a7565b949350505050565b60005b8381101561137557818101518382015260200161135d565b83811115611384576000848401525b50505050565b60006020828403121561139c57600080fd5b815167ffffffffffffffff808211156113b457600080fd5b818401915084601f8301126113c857600080fd5b8151818111156113da576113da6112d3565b604051601f8201601f19908116603f01168101908382118183101715611402576114026112d3565b8160405282815287602084870101111561141b57600080fd5b61142c83602083016020880161135a565b979650505050505050565b60018060a01b0383168152604060208201526000825180604084015261146481606085016020870161135a565b601f01601f191691909101606001939250505056fea264697066735822122002f256d12fe5228f025c3ae8dbb2acd86fc4c22ec9ac3f648215778d060f615d64736f6c634300080d0033",
    "linkReferences": {}
  },
  "methodIdentifiers": {
    "addImplementation(address,bool,bool)": "6fd3e071",
    "allModuleImplementations(uint256)": "f518b0f7",
    "allModules(uint256)": "d8d82b43",
    "allStrategies(uint256)": "e1e3dfeb",
    "allowPublicImplementations()": "065bb47c",
    "allowPublicStrategies()": "9f2ebdf4",
    "createStrategy(address[])": "d2f05a42",
    "deactivateImplementaion(address)": "2c52746c",
    "getAllStrategies()": "c3b28864",
    "isPegged(address,address)": "a2c4ad5b",
    "owner()": "8da5cb5b",
    "setAllowPublicImplementations(bool)": "5b8b950b",
    "setAllowPublicStrategies(bool)": "2e280043",
    "setOwner(address)": "13af4035",
    "setPeggedAssets(address,address,bool)": "d9f828b8",
    "setStrategyImplementation(address)": "ac66016d",
    "strategyImplementation()": "bd922b1c"
  },
  "id": 28
}